{
  "contractName": "CrysmInventory",
  "abi": [
    {
      "inputs": [],
      "stateMutability": "payable",
      "type": "constructor"
    },
    {
      "anonymous": false,
      "inputs": [
        {
          "indexed": true,
          "internalType": "address",
          "name": "account",
          "type": "address"
        },
        {
          "indexed": true,
          "internalType": "address",
          "name": "operator",
          "type": "address"
        },
        {
          "indexed": false,
          "internalType": "bool",
          "name": "approved",
          "type": "bool"
        }
      ],
      "name": "ApprovalForAll",
      "type": "event"
    },
    {
      "anonymous": false,
      "inputs": [
        {
          "indexed": true,
          "internalType": "address",
          "name": "previousOwner",
          "type": "address"
        },
        {
          "indexed": true,
          "internalType": "address",
          "name": "newOwner",
          "type": "address"
        }
      ],
      "name": "OwnershipTransferred",
      "type": "event"
    },
    {
      "anonymous": false,
      "inputs": [
        {
          "indexed": false,
          "internalType": "address",
          "name": "account",
          "type": "address"
        }
      ],
      "name": "Paused",
      "type": "event"
    },
    {
      "anonymous": false,
      "inputs": [
        {
          "indexed": true,
          "internalType": "address",
          "name": "operator",
          "type": "address"
        },
        {
          "indexed": true,
          "internalType": "address",
          "name": "from",
          "type": "address"
        },
        {
          "indexed": true,
          "internalType": "address",
          "name": "to",
          "type": "address"
        },
        {
          "indexed": false,
          "internalType": "uint256[]",
          "name": "ids",
          "type": "uint256[]"
        },
        {
          "indexed": false,
          "internalType": "uint256[]",
          "name": "values",
          "type": "uint256[]"
        }
      ],
      "name": "TransferBatch",
      "type": "event"
    },
    {
      "anonymous": false,
      "inputs": [
        {
          "indexed": true,
          "internalType": "address",
          "name": "operator",
          "type": "address"
        },
        {
          "indexed": true,
          "internalType": "address",
          "name": "from",
          "type": "address"
        },
        {
          "indexed": true,
          "internalType": "address",
          "name": "to",
          "type": "address"
        },
        {
          "indexed": false,
          "internalType": "uint256",
          "name": "id",
          "type": "uint256"
        },
        {
          "indexed": false,
          "internalType": "uint256",
          "name": "value",
          "type": "uint256"
        }
      ],
      "name": "TransferSingle",
      "type": "event"
    },
    {
      "anonymous": false,
      "inputs": [
        {
          "indexed": false,
          "internalType": "string",
          "name": "value",
          "type": "string"
        },
        {
          "indexed": true,
          "internalType": "uint256",
          "name": "id",
          "type": "uint256"
        }
      ],
      "name": "URI",
      "type": "event"
    },
    {
      "anonymous": false,
      "inputs": [
        {
          "indexed": false,
          "internalType": "address",
          "name": "account",
          "type": "address"
        }
      ],
      "name": "Unpaused",
      "type": "event"
    },
    {
      "inputs": [
        {
          "internalType": "address",
          "name": "_game",
          "type": "address"
        }
      ],
      "name": "addGameRole",
      "outputs": [],
      "stateMutability": "nonpayable",
      "type": "function"
    },
    {
      "inputs": [
        {
          "internalType": "address",
          "name": "account",
          "type": "address"
        },
        {
          "internalType": "uint256",
          "name": "id",
          "type": "uint256"
        }
      ],
      "name": "balanceOf",
      "outputs": [
        {
          "internalType": "uint256",
          "name": "",
          "type": "uint256"
        }
      ],
      "stateMutability": "view",
      "type": "function"
    },
    {
      "inputs": [
        {
          "internalType": "address[]",
          "name": "accounts",
          "type": "address[]"
        },
        {
          "internalType": "uint256[]",
          "name": "ids",
          "type": "uint256[]"
        }
      ],
      "name": "balanceOfBatch",
      "outputs": [
        {
          "internalType": "uint256[]",
          "name": "",
          "type": "uint256[]"
        }
      ],
      "stateMutability": "view",
      "type": "function"
    },
    {
      "inputs": [
        {
          "internalType": "uint256",
          "name": "id",
          "type": "uint256"
        }
      ],
      "name": "exists",
      "outputs": [
        {
          "internalType": "bool",
          "name": "",
          "type": "bool"
        }
      ],
      "stateMutability": "view",
      "type": "function"
    },
    {
      "inputs": [
        {
          "internalType": "address",
          "name": "account",
          "type": "address"
        },
        {
          "internalType": "address",
          "name": "operator",
          "type": "address"
        }
      ],
      "name": "isApprovedForAll",
      "outputs": [
        {
          "internalType": "bool",
          "name": "",
          "type": "bool"
        }
      ],
      "stateMutability": "view",
      "type": "function"
    },
    {
      "inputs": [],
      "name": "owner",
      "outputs": [
        {
          "internalType": "address",
          "name": "",
          "type": "address"
        }
      ],
      "stateMutability": "view",
      "type": "function"
    },
    {
      "inputs": [],
      "name": "paused",
      "outputs": [
        {
          "internalType": "bool",
          "name": "",
          "type": "bool"
        }
      ],
      "stateMutability": "view",
      "type": "function"
    },
    {
      "inputs": [
        {
          "internalType": "address",
          "name": "_game",
          "type": "address"
        }
      ],
      "name": "removeGameRole",
      "outputs": [],
      "stateMutability": "nonpayable",
      "type": "function"
    },
    {
      "inputs": [],
      "name": "renounceOwnership",
      "outputs": [],
      "stateMutability": "nonpayable",
      "type": "function"
    },
    {
      "inputs": [
        {
          "internalType": "address",
          "name": "from",
          "type": "address"
        },
        {
          "internalType": "address",
          "name": "to",
          "type": "address"
        },
        {
          "internalType": "uint256[]",
          "name": "ids",
          "type": "uint256[]"
        },
        {
          "internalType": "uint256[]",
          "name": "amounts",
          "type": "uint256[]"
        },
        {
          "internalType": "bytes",
          "name": "data",
          "type": "bytes"
        }
      ],
      "name": "safeBatchTransferFrom",
      "outputs": [],
      "stateMutability": "nonpayable",
      "type": "function"
    },
    {
      "inputs": [
        {
          "internalType": "address",
          "name": "from",
          "type": "address"
        },
        {
          "internalType": "address",
          "name": "to",
          "type": "address"
        },
        {
          "internalType": "uint256",
          "name": "id",
          "type": "uint256"
        },
        {
          "internalType": "uint256",
          "name": "amount",
          "type": "uint256"
        },
        {
          "internalType": "bytes",
          "name": "data",
          "type": "bytes"
        }
      ],
      "name": "safeTransferFrom",
      "outputs": [],
      "stateMutability": "nonpayable",
      "type": "function"
    },
    {
      "inputs": [
        {
          "internalType": "address",
          "name": "operator",
          "type": "address"
        },
        {
          "internalType": "bool",
          "name": "approved",
          "type": "bool"
        }
      ],
      "name": "setApprovalForAll",
      "outputs": [],
      "stateMutability": "nonpayable",
      "type": "function"
    },
    {
      "inputs": [
        {
          "internalType": "bytes4",
          "name": "interfaceId",
          "type": "bytes4"
        }
      ],
      "name": "supportsInterface",
      "outputs": [
        {
          "internalType": "bool",
          "name": "",
          "type": "bool"
        }
      ],
      "stateMutability": "view",
      "type": "function"
    },
    {
      "inputs": [
        {
          "internalType": "uint256",
          "name": "id",
          "type": "uint256"
        }
      ],
      "name": "totalSupply",
      "outputs": [
        {
          "internalType": "uint256",
          "name": "",
          "type": "uint256"
        }
      ],
      "stateMutability": "view",
      "type": "function"
    },
    {
      "inputs": [
        {
          "internalType": "address",
          "name": "newOwner",
          "type": "address"
        }
      ],
      "name": "transferOwnership",
      "outputs": [],
      "stateMutability": "nonpayable",
      "type": "function"
    },
    {
      "inputs": [
        {
          "internalType": "uint256",
          "name": "",
          "type": "uint256"
        }
      ],
      "name": "uri",
      "outputs": [
        {
          "internalType": "string",
          "name": "",
          "type": "string"
        }
      ],
      "stateMutability": "view",
      "type": "function"
    },
    {
      "inputs": [],
      "name": "getLeadRedValue",
      "outputs": [
        {
          "internalType": "uint8",
          "name": "",
          "type": "uint8"
        }
      ],
      "stateMutability": "view",
      "type": "function"
    },
    {
      "inputs": [
        {
          "internalType": "string",
          "name": "newuri",
          "type": "string"
        }
      ],
      "name": "setURI",
      "outputs": [
        {
          "internalType": "bool",
          "name": "",
          "type": "bool"
        }
      ],
      "stateMutability": "nonpayable",
      "type": "function"
    },
    {
      "inputs": [
        {
          "internalType": "address",
          "name": "to",
          "type": "address"
        }
      ],
      "name": "crysMint",
      "outputs": [
        {
          "internalType": "bool",
          "name": "",
          "type": "bool"
        }
      ],
      "stateMutability": "nonpayable",
      "type": "function"
    },
    {
      "inputs": [
        {
          "internalType": "address",
          "name": "to",
          "type": "address"
        },
        {
          "internalType": "uint256[]",
          "name": "ids",
          "type": "uint256[]"
        },
        {
          "internalType": "uint256[]",
          "name": "amounts",
          "type": "uint256[]"
        },
        {
          "internalType": "bytes",
          "name": "data",
          "type": "bytes"
        }
      ],
      "name": "gameMint",
      "outputs": [
        {
          "internalType": "bool",
          "name": "",
          "type": "bool"
        }
      ],
      "stateMutability": "nonpayable",
      "type": "function"
    },
    {
      "inputs": [
        {
          "internalType": "address",
          "name": "to",
          "type": "address"
        },
        {
          "internalType": "uint256[]",
          "name": "ids",
          "type": "uint256[]"
        },
        {
          "internalType": "uint256[]",
          "name": "amounts",
          "type": "uint256[]"
        }
      ],
      "name": "gameBurn",
      "outputs": [
        {
          "internalType": "bool",
          "name": "",
          "type": "bool"
        }
      ],
      "stateMutability": "nonpayable",
      "type": "function"
    },
    {
      "inputs": [
        {
          "internalType": "address",
          "name": "from",
          "type": "address"
        },
        {
          "internalType": "address",
          "name": "to",
          "type": "address"
        },
        {
          "internalType": "uint256[]",
          "name": "ids",
          "type": "uint256[]"
        },
        {
          "internalType": "uint256[]",
          "name": "amounts",
          "type": "uint256[]"
        },
        {
          "internalType": "bytes",
          "name": "data",
          "type": "bytes"
        }
      ],
      "name": "gameTransferFrom",
      "outputs": [
        {
          "internalType": "bool",
          "name": "",
          "type": "bool"
        }
      ],
      "stateMutability": "nonpayable",
      "type": "function"
    },
    {
      "inputs": [
        {
          "internalType": "address",
          "name": "owner",
          "type": "address"
        },
        {
          "internalType": "address",
          "name": "operator",
          "type": "address"
        },
        {
          "internalType": "bool",
          "name": "approved",
          "type": "bool"
        }
      ],
      "name": "gameSetApproval",
      "outputs": [
        {
          "internalType": "bool",
          "name": "",
          "type": "bool"
        }
      ],
      "stateMutability": "nonpayable",
      "type": "function"
    },
    {
      "inputs": [
        {
          "internalType": "uint256[]",
          "name": "ids",
          "type": "uint256[]"
        }
      ],
      "name": "totalSupplyBatch",
      "outputs": [
        {
          "internalType": "uint256[]",
          "name": "",
          "type": "uint256[]"
        }
      ],
      "stateMutability": "view",
      "type": "function"
    }
  ],
  "bytecode": "0x608060405260405180606001604052806036815260200162004def603691396200002f81620000c960201b60201c565b506200005062000044620000de60201b60201c565b620000e660201b60201c565b6000600660006101000a81548160ff0219169083151502179055506001600560003373ffffffffffffffffffffffffffffffffffffffff1673ffffffffffffffffffffffffffffffffffffffff16815260200190815260200160002060006101000a81548160ff0219169083151502179055506200050d565b8060029081620000da919062000426565b5050565b600033905090565b6000600460009054906101000a900473ffffffffffffffffffffffffffffffffffffffff16905081600460006101000a81548173ffffffffffffffffffffffffffffffffffffffff021916908373ffffffffffffffffffffffffffffffffffffffff1602179055508173ffffffffffffffffffffffffffffffffffffffff168173ffffffffffffffffffffffffffffffffffffffff167f8be0079c531659141344cd1fd0a4f28419497f9722a3daafe3b4186f6b6457e060405160405180910390a35050565b600081519050919050565b7f4e487b7100000000000000000000000000000000000000000000000000000000600052604160045260246000fd5b7f4e487b7100000000000000000000000000000000000000000000000000000000600052602260045260246000fd5b600060028204905060018216806200022e57607f821691505b602082108103620002445762000243620001e6565b5b50919050565b60008190508160005260206000209050919050565b60006020601f8301049050919050565b600082821b905092915050565b600060088302620002ae7fffffffffffffffffffffffffffffffffffffffffffffffffffffffffffffffff826200026f565b620002ba86836200026f565b95508019841693508086168417925050509392505050565b6000819050919050565b6000819050919050565b60006200030762000301620002fb84620002d2565b620002dc565b620002d2565b9050919050565b6000819050919050565b6200032383620002e6565b6200033b62000332826200030e565b8484546200027c565b825550505050565b600090565b6200035262000343565b6200035f81848462000318565b505050565b5b8181101562000387576200037b60008262000348565b60018101905062000365565b5050565b601f821115620003d657620003a0816200024a565b620003ab846200025f565b81016020851015620003bb578190505b620003d3620003ca856200025f565b83018262000364565b50505b505050565b600082821c905092915050565b6000620003fb60001984600802620003db565b1980831691505092915050565b6000620004168383620003e8565b9150826002028217905092915050565b6200043182620001ac565b67ffffffffffffffff8111156200044d576200044c620001b7565b5b62000459825462000215565b620004668282856200038b565b600060209050601f8311600181146200049e576000841562000489578287015190505b62000495858262000408565b86555062000505565b601f198416620004ae866200024a565b60005b82811015620004d857848901518255600182019150602085019450602081019050620004b1565b86831015620004f85784890151620004f4601f891682620003e8565b8355505b6001600288020188555050505b505050505050565b6148d2806200051d6000396000f3fe608060405234801561001057600080fd5b50600436106101575760003560e01c8063715018a6116100c3578063aca17a251161007c578063aca17a2514610410578063bd85b03914610440578063cf7683d414610470578063e985e9c5146104a0578063f242432a146104d0578063f2fde38b146104ec57610157565b8063715018a6146103505780637323b8fa1461035a57806377954ac2146103765780637990f854146103a65780638da5cb5b146103d6578063a22cb465146103f457610157565b80632eb2c2d6116101155780632eb2c2d6146102565780634692d174146102725780634e1273f4146102a25780634f558e79146102d25780635c975abb146103025780635ea5285e1461032057610157565b8062fdd58e1461015c57806301ffc9a71461018c57806302fe5305146101bc5780630e89341c146101ec57806319892b511461021c5780631b230d0114610238575b600080fd5b61017660048036038101906101719190612acc565b610508565b6040516101839190612b1b565b60405180910390f35b6101a660048036038101906101a19190612b8e565b6105d0565b6040516101b39190612bd6565b60405180910390f35b6101d660048036038101906101d19190612d37565b6106b2565b6040516101e39190612bd6565b60405180910390f35b61020660048036038101906102019190612d80565b6106ce565b6040516102139190612e2c565b60405180910390f35b61023660048036038101906102319190612e4e565b610762565b005b6102406107c5565b60405161024d9190612e97565b60405180910390f35b610270600480360381019061026b919061301b565b6107ca565b005b61028c60048036038101906102879190612e4e565b61086b565b6040516102999190612bd6565b60405180910390f35b6102bc60048036038101906102b791906131ad565b610bfd565b6040516102c991906132e3565b60405180910390f35b6102ec60048036038101906102e79190612d80565b610d16565b6040516102f99190612bd6565b60405180910390f35b61030a610d2a565b6040516103179190612bd6565b60405180910390f35b61033a60048036038101906103359190613305565b610d41565b6040516103479190612bd6565b60405180910390f35b610358610df5565b005b610374600480360381019061036f9190612e4e565b610e09565b005b610390600480360381019061038b91906133c0565b610e6c565b60405161039d91906132e3565b60405180910390f35b6103c060048036038101906103bb919061301b565b610f25565b6040516103cd9190612bd6565b60405180910390f35b6103de610fdb565b6040516103eb9190613418565b60405180910390f35b61040e6004803603810190610409919061345f565b611005565b005b61042a6004803603810190610425919061349f565b61101b565b6040516104379190612bd6565b60405180910390f35b61045a60048036038101906104559190612d80565b6110cd565b6040516104679190612b1b565b60405180910390f35b61048a6004803603810190610485919061352a565b6110ea565b6040516104979190612bd6565b60405180910390f35b6104ba60048036038101906104b5919061357d565b61119c565b6040516104c79190612bd6565b60405180910390f35b6104ea60048036038101906104e591906135bd565b611230565b005b61050660048036038101906105019190612e4e565b6112d1565b005b60008073ffffffffffffffffffffffffffffffffffffffff168373ffffffffffffffffffffffffffffffffffffffff1603610578576040517f08c379a000000000000000000000000000000000000000000000000000000000815260040161056f906136c6565b60405180910390fd5b60008083815260200190815260200160002060008473ffffffffffffffffffffffffffffffffffffffff1673ffffffffffffffffffffffffffffffffffffffff16815260200190815260200160002054905092915050565b60007fd9b67a26000000000000000000000000000000000000000000000000000000007bffffffffffffffffffffffffffffffffffffffffffffffffffffffff1916827bffffffffffffffffffffffffffffffffffffffffffffffffffffffff1916148061069b57507f0e89341c000000000000000000000000000000000000000000000000000000007bffffffffffffffffffffffffffffffffffffffffffffffffffffffff1916827bffffffffffffffffffffffffffffffffffffffffffffffffffffffff1916145b806106ab57506106aa82611354565b5b9050919050565b60006106bc6113be565b6106c58261143c565b60019050919050565b6060600280546106dd90613715565b80601f016020809104026020016040519081016040528092919081815260200182805461070990613715565b80156107565780601f1061072b57610100808354040283529160200191610756565b820191906000526020600020905b81548152906001019060200180831161073957829003601f168201915b50505050509050919050565b61076a6113be565b6000600560008373ffffffffffffffffffffffffffffffffffffffff1673ffffffffffffffffffffffffffffffffffffffff16815260200190815260200160002060006101000a81548160ff02191690831515021790555050565b600090565b6107d261144f565b73ffffffffffffffffffffffffffffffffffffffff168573ffffffffffffffffffffffffffffffffffffffff16148061081857506108178561081261144f565b61119c565b5b610857576040517f08c379a000000000000000000000000000000000000000000000000000000000815260040161084e906137b8565b60405180910390fd5b6108648585858585611457565b5050505050565b6000600115156005600061087d61144f565b73ffffffffffffffffffffffffffffffffffffffff1673ffffffffffffffffffffffffffffffffffffffff16815260200190815260200160002060009054906101000a900460ff16151514610907576040517f08c379a00000000000000000000000000000000000000000000000000000000081526004016108fe90613824565b60405180910390fd5b61090f612a01565b610917611778565b816000600c811061092b5761092a613844565b5b602002019062ffffff16908162ffffff168152505060076000826000600c811061095857610957613844565b5b602002015162ffffff1662ffffff16815260200190815260200160002060009054906101000a900460ff16156109c3576040517f08c379a00000000000000000000000000000000000000000000000000000000081526004016109ba906138e5565b60405180910390fd5b60006109eb826000600c81106109dc576109db613844565b5b602002015162ffffff16611790565b90505b6000600190505b600c811015610aab57610a06611778565b8382600c8110610a1957610a18613844565b5b602002019062ffffff16908162ffffff168152505081604051602001610a3f9190613967565b604051602081830303815290604052915081610a768483600c8110610a6757610a66613844565b5b602002015162ffffff16611790565b604051602001610a8792919061398d565b60405160208183030381529060405291508080610aa3906139e0565b9150506109f5565b50600881604051610abc9190613a28565b908152602001604051809103902060009054906101000a900460ff166109ee57600160076000846000600c8110610af657610af5613844565b5b602002015162ffffff1662ffffff16815260200190815260200160002060006101000a81548160ff0219169083151502179055506001600882604051610b3c9190613a28565b908152602001604051809103902060006101000a81548160ff021916908315150217905550600960009054906101000a900473ffffffffffffffffffffffffffffffffffffffff1673ffffffffffffffffffffffffffffffffffffffff1663c579fb058584846040518463ffffffff1660e01b8152600401610bc093929190613af9565b600060405180830381600087803b158015610bda57600080fd5b505af1158015610bee573d6000803e3d6000fd5b50505050600192505050919050565b60608151835114610c43576040517f08c379a0000000000000000000000000000000000000000000000000000000008152600401610c3a90613bab565b60405180910390fd5b6000835167ffffffffffffffff811115610c6057610c5f612c0c565b5b604051908082528060200260200182016040528015610c8e5781602001602082028036833780820191505090505b50905060005b8451811015610d0b57610cdb858281518110610cb357610cb2613844565b5b6020026020010151858381518110610cce57610ccd613844565b5b6020026020010151610508565b828281518110610cee57610ced613844565b5b60200260200101818152505080610d04906139e0565b9050610c94565b508091505092915050565b600080610d22836110cd565b119050919050565b6000600660009054906101000a900460ff16905090565b60006001151560056000610d5361144f565b73ffffffffffffffffffffffffffffffffffffffff1673ffffffffffffffffffffffffffffffffffffffff16815260200190815260200160002060009054906101000a900460ff16151514610ddd576040517f08c379a0000000000000000000000000000000000000000000000000000000008152600401610dd490613824565b60405180910390fd5b610de98585858561185e565b60019050949350505050565b610dfd6113be565b610e076000611a8a565b565b610e116113be565b6001600560008373ffffffffffffffffffffffffffffffffffffffff1673ffffffffffffffffffffffffffffffffffffffff16815260200190815260200160002060006101000a81548160ff02191690831515021790555050565b60606000825167ffffffffffffffff811115610e8b57610e8a612c0c565b5b604051908082528060200260200182016040528015610eb95781602001602082028036833780820191505090505b50905060005b8351811015610f1b57610eeb848281518110610ede57610edd613844565b5b60200260200101516110cd565b828281518110610efe57610efd613844565b5b60200260200101818152505080610f14906139e0565b9050610ebf565b5080915050919050565b60006001151560056000610f3761144f565b73ffffffffffffffffffffffffffffffffffffffff1673ffffffffffffffffffffffffffffffffffffffff16815260200190815260200160002060009054906101000a900460ff16151514610fc1576040517f08c379a0000000000000000000000000000000000000000000000000000000008152600401610fb890613824565b60405180910390fd5b610fce8686868686611457565b6001905095945050505050565b6000600460009054906101000a900473ffffffffffffffffffffffffffffffffffffffff16905090565b61101761101061144f565b8383611b50565b5050565b6000600115156005600061102d61144f565b73ffffffffffffffffffffffffffffffffffffffff1673ffffffffffffffffffffffffffffffffffffffff16815260200190815260200160002060009054906101000a900460ff161515146110b7576040517f08c379a00000000000000000000000000000000000000000000000000000000081526004016110ae90613824565b60405180910390fd5b6110c2848484611cbc565b600190509392505050565b600060036000838152602001908152602001600020549050919050565b600060011515600560006110fc61144f565b73ffffffffffffffffffffffffffffffffffffffff1673ffffffffffffffffffffffffffffffffffffffff16815260200190815260200160002060009054906101000a900460ff16151514611186576040517f08c379a000000000000000000000000000000000000000000000000000000000815260040161117d90613824565b60405180910390fd5b611191848484611b50565b600190509392505050565b6000600160008473ffffffffffffffffffffffffffffffffffffffff1673ffffffffffffffffffffffffffffffffffffffff16815260200190815260200160002060008373ffffffffffffffffffffffffffffffffffffffff1673ffffffffffffffffffffffffffffffffffffffff16815260200190815260200160002060009054906101000a900460ff16905092915050565b61123861144f565b73ffffffffffffffffffffffffffffffffffffffff168573ffffffffffffffffffffffffffffffffffffffff16148061127e575061127d8561127861144f565b61119c565b5b6112bd576040517f08c379a00000000000000000000000000000000000000000000000000000000081526004016112b4906137b8565b60405180910390fd5b6112ca8585858585611f8a565b5050505050565b6112d96113be565b600073ffffffffffffffffffffffffffffffffffffffff168173ffffffffffffffffffffffffffffffffffffffff1603611348576040517f08c379a000000000000000000000000000000000000000000000000000000000815260040161133f90613c3d565b60405180910390fd5b61135181611a8a565b50565b60007f01ffc9a7000000000000000000000000000000000000000000000000000000007bffffffffffffffffffffffffffffffffffffffffffffffffffffffff1916827bffffffffffffffffffffffffffffffffffffffffffffffffffffffff1916149050919050565b6113c661144f565b73ffffffffffffffffffffffffffffffffffffffff166113e4610fdb565b73ffffffffffffffffffffffffffffffffffffffff161461143a576040517f08c379a000000000000000000000000000000000000000000000000000000000815260040161143190613ca9565b60405180910390fd5b565b806002908161144b9190613e75565b5050565b600033905090565b815183511461149b576040517f08c379a000000000000000000000000000000000000000000000000000000000815260040161149290613fb9565b60405180910390fd5b600073ffffffffffffffffffffffffffffffffffffffff168473ffffffffffffffffffffffffffffffffffffffff160361150a576040517f08c379a00000000000000000000000000000000000000000000000000000000081526004016115019061404b565b60405180910390fd5b600061151461144f565b9050611524818787878787612225565b60005b84518110156116d557600085828151811061154557611544613844565b5b60200260200101519050600085838151811061156457611563613844565b5b60200260200101519050600080600084815260200190815260200160002060008b73ffffffffffffffffffffffffffffffffffffffff1673ffffffffffffffffffffffffffffffffffffffff16815260200190815260200160002054905081811015611605576040517f08c379a00000000000000000000000000000000000000000000000000000000081526004016115fc906140dd565b60405180910390fd5b81810360008085815260200190815260200160002060008c73ffffffffffffffffffffffffffffffffffffffff1673ffffffffffffffffffffffffffffffffffffffff168152602001908152602001600020819055508160008085815260200190815260200160002060008b73ffffffffffffffffffffffffffffffffffffffff1673ffffffffffffffffffffffffffffffffffffffff16815260200190815260200160002060008282546116ba91906140fd565b92505081905550505050806116ce906139e0565b9050611527565b508473ffffffffffffffffffffffffffffffffffffffff168673ffffffffffffffffffffffffffffffffffffffff168273ffffffffffffffffffffffffffffffffffffffff167f4a39dc06d4c0dbc64b70af90fd698a233a518aa5d07e595d983b8c0526c8f7fb878760405161174c929190614131565b60405180910390a4611762818787878787612283565b61177081878787878761228b565b505050505050565b60006001436117879190614168565b4060001c905090565b60606000600161179f84612462565b01905060008167ffffffffffffffff8111156117be576117bd612c0c565b5b6040519080825280601f01601f1916602001820160405280156117f05781602001600182028036833780820191505090505b509050600082602001820190505b600115611853578080600190039150507f3031323334353637383961626364656600000000000000000000000000000000600a86061a8153600a85816118475761184661419c565b5b049450600085036117fe575b819350505050919050565b600073ffffffffffffffffffffffffffffffffffffffff168473ffffffffffffffffffffffffffffffffffffffff16036118cd576040517f08c379a00000000000000000000000000000000000000000000000000000000081526004016118c49061423d565b60405180910390fd5b8151835114611911576040517f08c379a000000000000000000000000000000000000000000000000000000000815260040161190890613fb9565b60405180910390fd5b600061191b61144f565b905061192c81600087878787612225565b60005b84518110156119e55783818151811061194b5761194a613844565b5b602002602001015160008087848151811061196957611968613844565b5b6020026020010151815260200190815260200160002060008873ffffffffffffffffffffffffffffffffffffffff1673ffffffffffffffffffffffffffffffffffffffff16815260200190815260200160002060008282546119cb91906140fd565b9250508190555080806119dd906139e0565b91505061192f565b508473ffffffffffffffffffffffffffffffffffffffff16600073ffffffffffffffffffffffffffffffffffffffff168273ffffffffffffffffffffffffffffffffffffffff167f4a39dc06d4c0dbc64b70af90fd698a233a518aa5d07e595d983b8c0526c8f7fb8787604051611a5d929190614131565b60405180910390a4611a7481600087878787612283565b611a838160008787878761228b565b5050505050565b6000600460009054906101000a900473ffffffffffffffffffffffffffffffffffffffff16905081600460006101000a81548173ffffffffffffffffffffffffffffffffffffffff021916908373ffffffffffffffffffffffffffffffffffffffff1602179055508173ffffffffffffffffffffffffffffffffffffffff168173ffffffffffffffffffffffffffffffffffffffff167f8be0079c531659141344cd1fd0a4f28419497f9722a3daafe3b4186f6b6457e060405160405180910390a35050565b8173ffffffffffffffffffffffffffffffffffffffff168373ffffffffffffffffffffffffffffffffffffffff1603611bbe576040517f08c379a0000000000000000000000000000000000000000000000000000000008152600401611bb5906142cf565b60405180910390fd5b80600160008573ffffffffffffffffffffffffffffffffffffffff1673ffffffffffffffffffffffffffffffffffffffff16815260200190815260200160002060008473ffffffffffffffffffffffffffffffffffffffff1673ffffffffffffffffffffffffffffffffffffffff16815260200190815260200160002060006101000a81548160ff0219169083151502179055508173ffffffffffffffffffffffffffffffffffffffff168373ffffffffffffffffffffffffffffffffffffffff167f17307eab39ab6107e8899845ad3d59bd9653f200f220920489ca2b5937696c3183604051611caf9190612bd6565b60405180910390a3505050565b600073ffffffffffffffffffffffffffffffffffffffff168373ffffffffffffffffffffffffffffffffffffffff1603611d2b576040517f08c379a0000000000000000000000000000000000000000000000000000000008152600401611d2290614361565b60405180910390fd5b8051825114611d6f576040517f08c379a0000000000000000000000000000000000000000000000000000000008152600401611d6690613fb9565b60405180910390fd5b6000611d7961144f565b9050611d9981856000868660405180602001604052806000815250612225565b60005b8351811015611ee6576000848281518110611dba57611db9613844565b5b602002602001015190506000848381518110611dd957611dd8613844565b5b60200260200101519050600080600084815260200190815260200160002060008973ffffffffffffffffffffffffffffffffffffffff1673ffffffffffffffffffffffffffffffffffffffff16815260200190815260200160002054905081811015611e7a576040517f08c379a0000000000000000000000000000000000000000000000000000000008152600401611e71906143f3565b60405180910390fd5b81810360008085815260200190815260200160002060008a73ffffffffffffffffffffffffffffffffffffffff1673ffffffffffffffffffffffffffffffffffffffff168152602001908152602001600020819055505050508080611ede906139e0565b915050611d9c565b50600073ffffffffffffffffffffffffffffffffffffffff168473ffffffffffffffffffffffffffffffffffffffff168273ffffffffffffffffffffffffffffffffffffffff167f4a39dc06d4c0dbc64b70af90fd698a233a518aa5d07e595d983b8c0526c8f7fb8686604051611f5e929190614131565b60405180910390a4611f8481856000868660405180602001604052806000815250612283565b50505050565b600073ffffffffffffffffffffffffffffffffffffffff168473ffffffffffffffffffffffffffffffffffffffff1603611ff9576040517f08c379a0000000000000000000000000000000000000000000000000000000008152600401611ff09061404b565b60405180910390fd5b600061200361144f565b90506000612010856125b5565b9050600061201d856125b5565b905061202d838989858589612225565b600080600088815260200190815260200160002060008a73ffffffffffffffffffffffffffffffffffffffff1673ffffffffffffffffffffffffffffffffffffffff168152602001908152602001600020549050858110156120c4576040517f08c379a00000000000000000000000000000000000000000000000000000000081526004016120bb906140dd565b60405180910390fd5b85810360008089815260200190815260200160002060008b73ffffffffffffffffffffffffffffffffffffffff1673ffffffffffffffffffffffffffffffffffffffff168152602001908152602001600020819055508560008089815260200190815260200160002060008a73ffffffffffffffffffffffffffffffffffffffff1673ffffffffffffffffffffffffffffffffffffffff168152602001908152602001600020600082825461217991906140fd565b925050819055508773ffffffffffffffffffffffffffffffffffffffff168973ffffffffffffffffffffffffffffffffffffffff168573ffffffffffffffffffffffffffffffffffffffff167fc3d58168c5ae7397731d063d5bbf3d657854427343f4c083240f7aacaa2d0f628a8a6040516121f6929190614413565b60405180910390a461220c848a8a86868a612283565b61221a848a8a8a8a8a61262f565b505050505050505050565b612233868686868686612806565b61223b610d2a565b1561227b576040517f08c379a0000000000000000000000000000000000000000000000000000000008152600401612272906144ae565b60405180910390fd5b505050505050565b505050505050565b6122aa8473ffffffffffffffffffffffffffffffffffffffff166129d6565b1561245a578373ffffffffffffffffffffffffffffffffffffffff1663bc197c8187878686866040518663ffffffff1660e01b81526004016122f0959493929190614523565b6020604051808303816000875af192505050801561232c57506040513d601f19601f8201168201806040525081019061232991906145a0565b60015b6123d1576123386145da565b806308c379a003612394575061234c6145fc565b806123575750612396565b806040517f08c379a000000000000000000000000000000000000000000000000000000000815260040161238b9190612e2c565b60405180910390fd5b505b6040517f08c379a00000000000000000000000000000000000000000000000000000000081526004016123c8906146fe565b60405180910390fd5b63bc197c8160e01b7bffffffffffffffffffffffffffffffffffffffffffffffffffffffff1916817bffffffffffffffffffffffffffffffffffffffffffffffffffffffff191614612458576040517f08c379a000000000000000000000000000000000000000000000000000000000815260040161244f90614790565b60405180910390fd5b505b505050505050565b600080600090507a184f03e93ff9f4daa797ed6e38ed64bf6a1f01000000000000000083106124c0577a184f03e93ff9f4daa797ed6e38ed64bf6a1f01000000000000000083816124b6576124b561419c565b5b0492506040810190505b6d04ee2d6d415b85acef810000000083106124fd576d04ee2d6d415b85acef810000000083816124f3576124f261419c565b5b0492506020810190505b662386f26fc10000831061252c57662386f26fc1000083816125225761252161419c565b5b0492506010810190505b6305f5e1008310612555576305f5e100838161254b5761254a61419c565b5b0492506008810190505b612710831061257a5761271083816125705761256f61419c565b5b0492506004810190505b6064831061259d57606483816125935761259261419c565b5b0492506002810190505b600a83106125ac576001810190505b80915050919050565b60606000600167ffffffffffffffff8111156125d4576125d3612c0c565b5b6040519080825280602002602001820160405280156126025781602001602082028036833780820191505090505b509050828160008151811061261a57612619613844565b5b60200260200101818152505080915050919050565b61264e8473ffffffffffffffffffffffffffffffffffffffff166129d6565b156127fe578373ffffffffffffffffffffffffffffffffffffffff1663f23a6e6187878686866040518663ffffffff1660e01b81526004016126949594939291906147b0565b6020604051808303816000875af19250505080156126d057506040513d601f19601f820116820180604052508101906126cd91906145a0565b60015b612775576126dc6145da565b806308c379a00361273857506126f06145fc565b806126fb575061273a565b806040517f08c379a000000000000000000000000000000000000000000000000000000000815260040161272f9190612e2c565b60405180910390fd5b505b6040517f08c379a000000000000000000000000000000000000000000000000000000000815260040161276c906146fe565b60405180910390fd5b63f23a6e6160e01b7bffffffffffffffffffffffffffffffffffffffffffffffffffffffff1916817bffffffffffffffffffffffffffffffffffffffffffffffffffffffff1916146127fc576040517f08c379a00000000000000000000000000000000000000000000000000000000081526004016127f390614790565b60405180910390fd5b505b505050505050565b6128148686868686866129f9565b600073ffffffffffffffffffffffffffffffffffffffff168573ffffffffffffffffffffffffffffffffffffffff16036128c55760005b83518110156128c35782818151811061286757612866613844565b5b60200260200101516003600086848151811061288657612885613844565b5b6020026020010151815260200190815260200160002060008282546128ab91906140fd565b92505081905550806128bc906139e0565b905061284b565b505b600073ffffffffffffffffffffffffffffffffffffffff168473ffffffffffffffffffffffffffffffffffffffff16036129ce5760005b83518110156129cc57600084828151811061291a57612919613844565b5b60200260200101519050600084838151811061293957612938613844565b5b602002602001015190506000600360008481526020019081526020016000205490508181101561299e576040517f08c379a00000000000000000000000000000000000000000000000000000000081526004016129959061487c565b60405180910390fd5b8181036003600085815260200190815260200160002081905550505050806129c5906139e0565b90506128fc565b505b505050505050565b6000808273ffffffffffffffffffffffffffffffffffffffff163b119050919050565b505050505050565b604051806101800160405280600c90602082028036833780820191505090505090565b6000604051905090565b600080fd5b600080fd5b600073ffffffffffffffffffffffffffffffffffffffff82169050919050565b6000612a6382612a38565b9050919050565b612a7381612a58565b8114612a7e57600080fd5b50565b600081359050612a9081612a6a565b92915050565b6000819050919050565b612aa981612a96565b8114612ab457600080fd5b50565b600081359050612ac681612aa0565b92915050565b60008060408385031215612ae357612ae2612a2e565b5b6000612af185828601612a81565b9250506020612b0285828601612ab7565b9150509250929050565b612b1581612a96565b82525050565b6000602082019050612b306000830184612b0c565b92915050565b60007fffffffff0000000000000000000000000000000000000000000000000000000082169050919050565b612b6b81612b36565b8114612b7657600080fd5b50565b600081359050612b8881612b62565b92915050565b600060208284031215612ba457612ba3612a2e565b5b6000612bb284828501612b79565b91505092915050565b60008115159050919050565b612bd081612bbb565b82525050565b6000602082019050612beb6000830184612bc7565b92915050565b600080fd5b600080fd5b6000601f19601f8301169050919050565b7f4e487b7100000000000000000000000000000000000000000000000000000000600052604160045260246000fd5b612c4482612bfb565b810181811067ffffffffffffffff82111715612c6357612c62612c0c565b5b80604052505050565b6000612c76612a24565b9050612c828282612c3b565b919050565b600067ffffffffffffffff821115612ca257612ca1612c0c565b5b612cab82612bfb565b9050602081019050919050565b82818337600083830152505050565b6000612cda612cd584612c87565b612c6c565b905082815260208101848484011115612cf657612cf5612bf6565b5b612d01848285612cb8565b509392505050565b600082601f830112612d1e57612d1d612bf1565b5b8135612d2e848260208601612cc7565b91505092915050565b600060208284031215612d4d57612d4c612a2e565b5b600082013567ffffffffffffffff811115612d6b57612d6a612a33565b5b612d7784828501612d09565b91505092915050565b600060208284031215612d9657612d95612a2e565b5b6000612da484828501612ab7565b91505092915050565b600081519050919050565b600082825260208201905092915050565b60005b83811015612de7578082015181840152602081019050612dcc565b60008484015250505050565b6000612dfe82612dad565b612e088185612db8565b9350612e18818560208601612dc9565b612e2181612bfb565b840191505092915050565b60006020820190508181036000830152612e468184612df3565b905092915050565b600060208284031215612e6457612e63612a2e565b5b6000612e7284828501612a81565b91505092915050565b600060ff82169050919050565b612e9181612e7b565b82525050565b6000602082019050612eac6000830184612e88565b92915050565b600067ffffffffffffffff821115612ecd57612ecc612c0c565b5b602082029050602081019050919050565b600080fd5b6000612ef6612ef184612eb2565b612c6c565b90508083825260208201905060208402830185811115612f1957612f18612ede565b5b835b81811015612f425780612f2e8882612ab7565b845260208401935050602081019050612f1b565b5050509392505050565b600082601f830112612f6157612f60612bf1565b5b8135612f71848260208601612ee3565b91505092915050565b600067ffffffffffffffff821115612f9557612f94612c0c565b5b612f9e82612bfb565b9050602081019050919050565b6000612fbe612fb984612f7a565b612c6c565b905082815260208101848484011115612fda57612fd9612bf6565b5b612fe5848285612cb8565b509392505050565b600082601f83011261300257613001612bf1565b5b8135613012848260208601612fab565b91505092915050565b600080600080600060a0868803121561303757613036612a2e565b5b600061304588828901612a81565b955050602061305688828901612a81565b945050604086013567ffffffffffffffff81111561307757613076612a33565b5b61308388828901612f4c565b935050606086013567ffffffffffffffff8111156130a4576130a3612a33565b5b6130b088828901612f4c565b925050608086013567ffffffffffffffff8111156130d1576130d0612a33565b5b6130dd88828901612fed565b9150509295509295909350565b600067ffffffffffffffff82111561310557613104612c0c565b5b602082029050602081019050919050565b6000613129613124846130ea565b612c6c565b9050808382526020820190506020840283018581111561314c5761314b612ede565b5b835b8181101561317557806131618882612a81565b84526020840193505060208101905061314e565b5050509392505050565b600082601f83011261319457613193612bf1565b5b81356131a4848260208601613116565b91505092915050565b600080604083850312156131c4576131c3612a2e565b5b600083013567ffffffffffffffff8111156131e2576131e1612a33565b5b6131ee8582860161317f565b925050602083013567ffffffffffffffff81111561320f5761320e612a33565b5b61321b85828601612f4c565b9150509250929050565b600081519050919050565b600082825260208201905092915050565b6000819050602082019050919050565b61325a81612a96565b82525050565b600061326c8383613251565b60208301905092915050565b6000602082019050919050565b600061329082613225565b61329a8185613230565b93506132a583613241565b8060005b838110156132d65781516132bd8882613260565b97506132c883613278565b9250506001810190506132a9565b5085935050505092915050565b600060208201905081810360008301526132fd8184613285565b905092915050565b6000806000806080858703121561331f5761331e612a2e565b5b600061332d87828801612a81565b945050602085013567ffffffffffffffff81111561334e5761334d612a33565b5b61335a87828801612f4c565b935050604085013567ffffffffffffffff81111561337b5761337a612a33565b5b61338787828801612f4c565b925050606085013567ffffffffffffffff8111156133a8576133a7612a33565b5b6133b487828801612fed565b91505092959194509250565b6000602082840312156133d6576133d5612a2e565b5b600082013567ffffffffffffffff8111156133f4576133f3612a33565b5b61340084828501612f4c565b91505092915050565b61341281612a58565b82525050565b600060208201905061342d6000830184613409565b92915050565b61343c81612bbb565b811461344757600080fd5b50565b60008135905061345981613433565b92915050565b6000806040838503121561347657613475612a2e565b5b600061348485828601612a81565b92505060206134958582860161344a565b9150509250929050565b6000806000606084860312156134b8576134b7612a2e565b5b60006134c686828701612a81565b935050602084013567ffffffffffffffff8111156134e7576134e6612a33565b5b6134f386828701612f4c565b925050604084013567ffffffffffffffff81111561351457613513612a33565b5b61352086828701612f4c565b9150509250925092565b60008060006060848603121561354357613542612a2e565b5b600061355186828701612a81565b935050602061356286828701612a81565b92505060406135738682870161344a565b9150509250925092565b6000806040838503121561359457613593612a2e565b5b60006135a285828601612a81565b92505060206135b385828601612a81565b9150509250929050565b600080600080600060a086880312156135d9576135d8612a2e565b5b60006135e788828901612a81565b95505060206135f888828901612a81565b945050604061360988828901612ab7565b935050606061361a88828901612ab7565b925050608086013567ffffffffffffffff81111561363b5761363a612a33565b5b61364788828901612fed565b9150509295509295909350565b7f455243313135353a2061646472657373207a65726f206973206e6f742061207660008201527f616c6964206f776e657200000000000000000000000000000000000000000000602082015250565b60006136b0602a83612db8565b91506136bb82613654565b604082019050919050565b600060208201905081810360008301526136df816136a3565b9050919050565b7f4e487b7100000000000000000000000000000000000000000000000000000000600052602260045260246000fd5b6000600282049050600182168061372d57607f821691505b6020821081036137405761373f6136e6565b5b50919050565b7f455243313135353a2063616c6c6572206973206e6f7420746f6b656e206f776e60008201527f6572206f7220617070726f766564000000000000000000000000000000000000602082015250565b60006137a2602e83612db8565b91506137ad82613746565b604082019050919050565b600060208201905081810360008301526137d181613795565b9050919050565b7f437279736d3a20596f7520617265206e6f74207468652067616d650000000000600082015250565b600061380e601b83612db8565b9150613819826137d8565b602082019050919050565b6000602082019050818103600083015261383d81613801565b9050919050565b7f4e487b7100000000000000000000000000000000000000000000000000000000600052603260045260246000fd5b7f43616e2774206d696e7420616e6f7468657220437279736d207769746820746860008201527f6973206c65616420636f6c6f7200000000000000000000000000000000000000602082015250565b60006138cf602d83612db8565b91506138da82613873565b604082019050919050565b600060208201905081810360008301526138fe816138c2565b9050919050565b600081905092915050565b600061391b82612dad565b6139258185613905565b9350613935818560208601612dc9565b80840191505092915050565b7f2d00000000000000000000000000000000000000000000000000000000000000815250565b60006139738284613910565b915061397e82613941565b60018201915081905092915050565b60006139998285613910565b91506139a58284613910565b91508190509392505050565b7f4e487b7100000000000000000000000000000000000000000000000000000000600052601160045260246000fd5b60006139eb82612a96565b91507fffffffffffffffffffffffffffffffffffffffffffffffffffffffffffffffff8203613a1d57613a1c6139b1565b5b600182019050919050565b6000613a348284613910565b915081905092915050565b6000600c9050919050565b600081905092915050565b6000819050919050565b600062ffffff82169050919050565b613a7781613a5f565b82525050565b6000613a898383613a6e565b60208301905092915050565b6000602082019050919050565b613aab81613a3f565b613ab58184613a4a565b9250613ac082613a55565b8060005b83811015613af1578151613ad88782613a7d565b9650613ae383613a95565b925050600181019050613ac4565b505050505050565b60006101c082019050613b0f6000830186613409565b613b1c6020830185613aa2565b8181036101a0830152613b2f8184612df3565b9050949350505050565b7f455243313135353a206163636f756e747320616e6420696473206c656e67746860008201527f206d69736d617463680000000000000000000000000000000000000000000000602082015250565b6000613b95602983612db8565b9150613ba082613b39565b604082019050919050565b60006020820190508181036000830152613bc481613b88565b9050919050565b7f4f776e61626c653a206e6577206f776e657220697320746865207a65726f206160008201527f6464726573730000000000000000000000000000000000000000000000000000602082015250565b6000613c27602683612db8565b9150613c3282613bcb565b604082019050919050565b60006020820190508181036000830152613c5681613c1a565b9050919050565b7f4f776e61626c653a2063616c6c6572206973206e6f7420746865206f776e6572600082015250565b6000613c93602083612db8565b9150613c9e82613c5d565b602082019050919050565b60006020820190508181036000830152613cc281613c86565b9050919050565b60008190508160005260206000209050919050565b60006020601f8301049050919050565b600082821b905092915050565b600060088302613d2b7fffffffffffffffffffffffffffffffffffffffffffffffffffffffffffffffff82613cee565b613d358683613cee565b95508019841693508086168417925050509392505050565b6000819050919050565b6000613d72613d6d613d6884612a96565b613d4d565b612a96565b9050919050565b6000819050919050565b613d8c83613d57565b613da0613d9882613d79565b848454613cfb565b825550505050565b600090565b613db5613da8565b613dc0818484613d83565b505050565b5b81811015613de457613dd9600082613dad565b600181019050613dc6565b5050565b601f821115613e2957613dfa81613cc9565b613e0384613cde565b81016020851015613e12578190505b613e26613e1e85613cde565b830182613dc5565b50505b505050565b600082821c905092915050565b6000613e4c60001984600802613e2e565b1980831691505092915050565b6000613e658383613e3b565b9150826002028217905092915050565b613e7e82612dad565b67ffffffffffffffff811115613e9757613e96612c0c565b5b613ea18254613715565b613eac828285613de8565b600060209050601f831160018114613edf5760008415613ecd578287015190505b613ed78582613e59565b865550613f3f565b601f198416613eed86613cc9565b60005b82811015613f1557848901518255600182019150602085019450602081019050613ef0565b86831015613f325784890151613f2e601f891682613e3b565b8355505b6001600288020188555050505b505050505050565b7f455243313135353a2069647320616e6420616d6f756e7473206c656e6774682060008201527f6d69736d61746368000000000000000000000000000000000000000000000000602082015250565b6000613fa3602883612db8565b9150613fae82613f47565b604082019050919050565b60006020820190508181036000830152613fd281613f96565b9050919050565b7f455243313135353a207472616e7366657220746f20746865207a65726f20616460008201527f6472657373000000000000000000000000000000000000000000000000000000602082015250565b6000614035602583612db8565b915061404082613fd9565b604082019050919050565b6000602082019050818103600083015261406481614028565b9050919050565b7f455243313135353a20696e73756666696369656e742062616c616e636520666f60008201527f72207472616e7366657200000000000000000000000000000000000000000000602082015250565b60006140c7602a83612db8565b91506140d28261406b565b604082019050919050565b600060208201905081810360008301526140f6816140ba565b9050919050565b600061410882612a96565b915061411383612a96565b925082820190508082111561412b5761412a6139b1565b5b92915050565b6000604082019050818103600083015261414b8185613285565b9050818103602083015261415f8184613285565b90509392505050565b600061417382612a96565b915061417e83612a96565b9250828203905081811115614196576141956139b1565b5b92915050565b7f4e487b7100000000000000000000000000000000000000000000000000000000600052601260045260246000fd5b7f455243313135353a206d696e7420746f20746865207a65726f2061646472657360008201527f7300000000000000000000000000000000000000000000000000000000000000602082015250565b6000614227602183612db8565b9150614232826141cb565b604082019050919050565b600060208201905081810360008301526142568161421a565b9050919050565b7f455243313135353a2073657474696e6720617070726f76616c2073746174757360008201527f20666f722073656c660000000000000000000000000000000000000000000000602082015250565b60006142b9602983612db8565b91506142c48261425d565b604082019050919050565b600060208201905081810360008301526142e8816142ac565b9050919050565b7f455243313135353a206275726e2066726f6d20746865207a65726f206164647260008201527f6573730000000000000000000000000000000000000000000000000000000000602082015250565b600061434b602383612db8565b9150614356826142ef565b604082019050919050565b6000602082019050818103600083015261437a8161433e565b9050919050565b7f455243313135353a206275726e20616d6f756e7420657863656564732062616c60008201527f616e636500000000000000000000000000000000000000000000000000000000602082015250565b60006143dd602483612db8565b91506143e882614381565b604082019050919050565b6000602082019050818103600083015261440c816143d0565b9050919050565b60006040820190506144286000830185612b0c565b6144356020830184612b0c565b9392505050565b7f455243313135355061757361626c653a20746f6b656e207472616e736665722060008201527f7768696c65207061757365640000000000000000000000000000000000000000602082015250565b6000614498602c83612db8565b91506144a38261443c565b604082019050919050565b600060208201905081810360008301526144c78161448b565b9050919050565b600081519050919050565b600082825260208201905092915050565b60006144f5826144ce565b6144ff81856144d9565b935061450f818560208601612dc9565b61451881612bfb565b840191505092915050565b600060a0820190506145386000830188613409565b6145456020830187613409565b81810360408301526145578186613285565b9050818103606083015261456b8185613285565b9050818103608083015261457f81846144ea565b90509695505050505050565b60008151905061459a81612b62565b92915050565b6000602082840312156145b6576145b5612a2e565b5b60006145c48482850161458b565b91505092915050565b60008160e01c9050919050565b600060033d11156145f95760046000803e6145f66000516145cd565b90505b90565b600060443d106146895761460e612a24565b60043d036004823e80513d602482011167ffffffffffffffff82111715614636575050614689565b808201805167ffffffffffffffff8111156146545750505050614689565b80602083010160043d038501811115614671575050505050614689565b61468082602001850186612c3b565b82955050505050505b90565b7f455243313135353a207472616e7366657220746f206e6f6e2d4552433131353560008201527f526563656976657220696d706c656d656e746572000000000000000000000000602082015250565b60006146e8603483612db8565b91506146f38261468c565b604082019050919050565b60006020820190508181036000830152614717816146db565b9050919050565b7f455243313135353a204552433131353552656365697665722072656a6563746560008201527f6420746f6b656e73000000000000000000000000000000000000000000000000602082015250565b600061477a602883612db8565b91506147858261471e565b604082019050919050565b600060208201905081810360008301526147a98161476d565b9050919050565b600060a0820190506147c56000830188613409565b6147d26020830187613409565b6147df6040830186612b0c565b6147ec6060830185612b0c565b81810360808301526147fe81846144ea565b90509695505050505050565b7f455243313135353a206275726e20616d6f756e74206578636565647320746f7460008201527f616c537570706c79000000000000000000000000000000000000000000000000602082015250565b6000614866602883612db8565b91506148718261480a565b604082019050919050565b6000602082019050818103600083015261489581614859565b905091905056fea26469706673582212206aafec0c839b53c21c7c5126700daa291461f160c89a5225d46e1069764e685264736f6c63430008130033544f444f2d68747470733a2f2f73756e666c6f7765722d6c616e642e636f6d2f706c61792f657263313135352f7b69647d2e6a736f6e",
  "immutableReferences": {},
  "source": "// SPDX-License-Identifier: MIT\r\npragma solidity ^0.8.0;\r\n\r\nimport \"../node_modules/@openzeppelin/contracts/token/ERC1155/extensions/ERC1155Supply.sol\";\r\nimport \"./GameOwner.sol\";\r\nimport \"../node_modules/@openzeppelin/contracts/security/Pausable.sol\";\r\nimport \"../node_modules/@openzeppelin/contracts/utils/Strings.sol\";\r\nimport \"./Crysm.sol\";\r\n\r\ncontract CrysmInventory is ERC1155Supply, GameOwner, Pausable {\r\n\r\n    mapping(uint24 => bool) private isLeadColorTaken;\r\n    mapping(string => bool) private isColorCombinationTaken;\r\n\r\n    Crysm private whiteCrysm;\r\n\r\n    constructor() ERC1155(\"TODO-https://sunflower-land.com/play/erc1155/{id}.json\") payable {\r\n        gameRoles[msg.sender] = true;\r\n    }\r\n\r\n    function getLeadRedValue() public view returns (uint8) {\r\n        \r\n    }\r\n\r\n    //I know this is UNSAFE, but it's just for testing. Maybe oraclizing later?\r\n    function randomNumber() internal view returns (uint24) {\r\n        return uint24(uint(blockhash(block.number - 1)));\r\n    }\r\n\r\n    function setURI(string memory newuri) public onlyOwner returns (bool) {\r\n        _setURI(newuri);\r\n        return true;\r\n    }\r\n\r\n    function crysMint(address to) public onlyGame returns (bool) {\r\n        uint24[12] memory colors;\r\n\r\n        //this sucks. it would be better iterate on leadColor gen to save gas (random reverts are not nice).\r\n        //when there are not possibile combinations anymore, revert\r\n        colors[0] = randomNumber(); \r\n        require(!isLeadColorTaken[(colors[0])], \"Can't mint another Crysm with this lead color\");\r\n\r\n        string memory uri = Strings.toString(colors[0]);\r\n\r\n        do {\r\n            for(uint i=1; i<12; i++) {\r\n                colors[i]=randomNumber();\r\n                uri = string.concat(uri, \"-\");\r\n                uri = string.concat(uri, Strings.toString(colors[i]));\r\n            }\r\n        } while(isColorCombinationTaken[uri]);\r\n\r\n        isLeadColorTaken[colors[0]] = true;\r\n        isColorCombinationTaken[uri] = true;\r\n\r\n        //!!! check if \"to\" is already a Crysm owner !!!\r\n\r\n        whiteCrysm.safeMint(to, colors, uri);\r\n        return true;\r\n    }\r\n\r\n    function gameMint(\r\n        address to,\r\n        uint256[] memory ids,\r\n        uint256[] memory amounts,\r\n        bytes memory data\r\n    ) public onlyGame returns (bool) {\r\n        _mintBatch(to, ids, amounts, data);\r\n        return true;\r\n    }\r\n\r\n    function gameBurn(\r\n        address to,\r\n        uint256[] memory ids,\r\n        uint256[] memory amounts\r\n    ) public onlyGame returns (bool) {\r\n        _burnBatch(to, ids, amounts);\r\n        return true;\r\n    }\r\n\r\n    function gameTransferFrom(\r\n        address from,\r\n        address to,\r\n        uint256[] memory ids,\r\n        uint256[] memory amounts,\r\n        bytes memory data\r\n    ) public onlyGame returns (bool) {\r\n        _safeBatchTransferFrom(from, to, ids, amounts, data);\r\n        return true;\r\n    }\r\n\r\n    function gameSetApproval(\r\n        address owner,\r\n        address operator,\r\n        bool approved\r\n    ) public onlyGame returns (bool) {\r\n        _setApprovalForAll(owner, operator, approved);\r\n        return true;\r\n    }\r\n\r\n    /**\r\n     * Fetch supply for multiple tokens\r\n     */\r\n    function totalSupplyBatch(uint256[] memory ids)\r\n        public\r\n        view\r\n        returns (uint256[] memory)\r\n    {\r\n        uint256[] memory batchSupply = new uint256[](ids.length);\r\n\r\n        for (uint256 i = 0; i < ids.length; ++i) {\r\n            batchSupply[i] = totalSupply(ids[i]);\r\n        }\r\n\r\n        return batchSupply;\r\n    }\r\n\r\n    /**\r\n     * @dev See {ERC1155-_beforeTokenTransfer}.\r\n     *\r\n     * Requirements:\r\n     *\r\n     * - the contract must not be paused.\r\n     */\r\n    function _beforeTokenTransfer(\r\n        address operator,\r\n        address from,\r\n        address to,\r\n        uint256[] memory ids,\r\n        uint256[] memory amounts,\r\n        bytes memory data\r\n    ) internal virtual override {\r\n        super._beforeTokenTransfer(operator, from, to, ids, amounts, data);\r\n\r\n        require(!paused(), \"ERC1155Pausable: token transfer while paused\");\r\n    }\r\n}\r\n\r\n/*\r\ncontract Crysm is ERC1155 {\r\n    uint256 public constant GOLD = 0;\r\n    uint256 public constant SILVER = 1;\r\n    uint256 public constant THORS_HAMMER = 2;\r\n    uint256 public constant SWORD = 3;\r\n    uint256 public constant SHIELD = 4;\r\n\r\n    constructor() ERC1155(\"https://game.example/api/item/{id}.json\") {\r\n        _mint(msg.sender, GOLD, 10**18, \"\");\r\n        _mint(msg.sender, SILVER, 10**27, \"\");\r\n        _mint(msg.sender, THORS_HAMMER, 1, \"\");\r\n        _mint(msg.sender, SWORD, 10**9, \"\");\r\n        _mint(msg.sender, SHIELD, 10**9, \"\");\r\n    }\r\n}\r\n*/",
  "sourcePath": "C:\\Users\\al.malerba\\Documents\\GitHub\\Crysm\\contracts\\Crysm-Inventory.sol",
  "compiler": {
    "name": "solc",
    "version": "0.8.19+commit.7dd6d404.Emscripten.clang"
  },
  "schemaVersion": "3.4.13",
  "updatedAt": "2023-06-08T15:49:29.902Z",
  "devdoc": {
    "events": {
      "ApprovalForAll(address,address,bool)": {
        "details": "Emitted when `account` grants or revokes permission to `operator` to transfer their tokens, according to `approved`."
      },
      "Paused(address)": {
        "details": "Emitted when the pause is triggered by `account`."
      },
      "TransferBatch(address,address,address,uint256[],uint256[])": {
        "details": "Equivalent to multiple {TransferSingle} events, where `operator`, `from` and `to` are the same for all transfers."
      },
      "TransferSingle(address,address,address,uint256,uint256)": {
        "details": "Emitted when `value` tokens of token type `id` are transferred from `from` to `to` by `operator`."
      },
      "URI(string,uint256)": {
        "details": "Emitted when the URI for token type `id` changes to `value`, if it is a non-programmatic URI. If an {URI} event was emitted for `id`, the standard https://eips.ethereum.org/EIPS/eip-1155#metadata-extensions[guarantees] that `value` will equal the value returned by {IERC1155MetadataURI-uri}."
      },
      "Unpaused(address)": {
        "details": "Emitted when the pause is lifted by `account`."
      }
    },
    "kind": "dev",
    "methods": {
      "balanceOf(address,uint256)": {
        "details": "See {IERC1155-balanceOf}. Requirements: - `account` cannot be the zero address."
      },
      "balanceOfBatch(address[],uint256[])": {
        "details": "See {IERC1155-balanceOfBatch}. Requirements: - `accounts` and `ids` must have the same length."
      },
      "exists(uint256)": {
        "details": "Indicates whether any token exist with a given id, or not."
      },
      "isApprovedForAll(address,address)": {
        "details": "See {IERC1155-isApprovedForAll}."
      },
      "owner()": {
        "details": "Returns the address of the current owner."
      },
      "paused()": {
        "details": "Returns true if the contract is paused, and false otherwise."
      },
      "renounceOwnership()": {
        "details": "Leaves the contract without owner. It will not be possible to call `onlyOwner` functions anymore. Can only be called by the current owner. NOTE: Renouncing ownership will leave the contract without an owner, thereby removing any functionality that is only available to the owner."
      },
      "safeBatchTransferFrom(address,address,uint256[],uint256[],bytes)": {
        "details": "See {IERC1155-safeBatchTransferFrom}."
      },
      "safeTransferFrom(address,address,uint256,uint256,bytes)": {
        "details": "See {IERC1155-safeTransferFrom}."
      },
      "setApprovalForAll(address,bool)": {
        "details": "See {IERC1155-setApprovalForAll}."
      },
      "supportsInterface(bytes4)": {
        "details": "See {IERC165-supportsInterface}."
      },
      "totalSupply(uint256)": {
        "details": "Total amount of tokens in with a given id."
      },
      "transferOwnership(address)": {
        "details": "Transfers ownership of the contract to a new account (`newOwner`). Can only be called by the current owner."
      },
      "uri(uint256)": {
        "details": "See {IERC1155MetadataURI-uri}. This implementation returns the same URI for *all* token types. It relies on the token type ID substitution mechanism https://eips.ethereum.org/EIPS/eip-1155#metadata[defined in the EIP]. Clients calling this function must replace the `\\{id\\}` substring with the actual token type ID."
      }
    },
    "version": 1
  },
  "userdoc": {
    "kind": "user",
    "methods": {
      "totalSupplyBatch(uint256[])": {
        "notice": "Fetch supply for multiple tokens"
      }
    },
    "version": 1
  }
}