{
  "contractName": "Crysm",
  "abi": [
    {
      "inputs": [],
      "stateMutability": "nonpayable",
      "type": "constructor"
    },
    {
      "anonymous": false,
      "inputs": [
        {
          "indexed": true,
          "internalType": "address",
          "name": "owner",
          "type": "address"
        },
        {
          "indexed": true,
          "internalType": "address",
          "name": "approved",
          "type": "address"
        },
        {
          "indexed": true,
          "internalType": "uint256",
          "name": "tokenId",
          "type": "uint256"
        }
      ],
      "name": "Approval",
      "type": "event"
    },
    {
      "anonymous": false,
      "inputs": [
        {
          "indexed": true,
          "internalType": "address",
          "name": "owner",
          "type": "address"
        },
        {
          "indexed": true,
          "internalType": "address",
          "name": "operator",
          "type": "address"
        },
        {
          "indexed": false,
          "internalType": "bool",
          "name": "approved",
          "type": "bool"
        }
      ],
      "name": "ApprovalForAll",
      "type": "event"
    },
    {
      "anonymous": false,
      "inputs": [
        {
          "indexed": true,
          "internalType": "address",
          "name": "previousOwner",
          "type": "address"
        },
        {
          "indexed": true,
          "internalType": "address",
          "name": "newOwner",
          "type": "address"
        }
      ],
      "name": "OwnershipTransferred",
      "type": "event"
    },
    {
      "anonymous": false,
      "inputs": [
        {
          "indexed": true,
          "internalType": "address",
          "name": "from",
          "type": "address"
        },
        {
          "indexed": true,
          "internalType": "address",
          "name": "to",
          "type": "address"
        },
        {
          "indexed": true,
          "internalType": "uint256",
          "name": "tokenId",
          "type": "uint256"
        }
      ],
      "name": "Transfer",
      "type": "event"
    },
    {
      "inputs": [
        {
          "internalType": "address",
          "name": "to",
          "type": "address"
        },
        {
          "internalType": "uint256",
          "name": "tokenId",
          "type": "uint256"
        }
      ],
      "name": "approve",
      "outputs": [],
      "stateMutability": "nonpayable",
      "type": "function"
    },
    {
      "inputs": [
        {
          "internalType": "address",
          "name": "owner",
          "type": "address"
        }
      ],
      "name": "balanceOf",
      "outputs": [
        {
          "internalType": "uint256",
          "name": "",
          "type": "uint256"
        }
      ],
      "stateMutability": "view",
      "type": "function"
    },
    {
      "inputs": [
        {
          "internalType": "uint256",
          "name": "",
          "type": "uint256"
        }
      ],
      "name": "colors",
      "outputs": [
        {
          "internalType": "uint24",
          "name": "",
          "type": "uint24"
        }
      ],
      "stateMutability": "view",
      "type": "function"
    },
    {
      "inputs": [
        {
          "internalType": "uint256",
          "name": "tokenId",
          "type": "uint256"
        }
      ],
      "name": "getApproved",
      "outputs": [
        {
          "internalType": "address",
          "name": "",
          "type": "address"
        }
      ],
      "stateMutability": "view",
      "type": "function"
    },
    {
      "inputs": [
        {
          "internalType": "address",
          "name": "owner",
          "type": "address"
        },
        {
          "internalType": "address",
          "name": "operator",
          "type": "address"
        }
      ],
      "name": "isApprovedForAll",
      "outputs": [
        {
          "internalType": "bool",
          "name": "",
          "type": "bool"
        }
      ],
      "stateMutability": "view",
      "type": "function"
    },
    {
      "inputs": [],
      "name": "name",
      "outputs": [
        {
          "internalType": "string",
          "name": "",
          "type": "string"
        }
      ],
      "stateMutability": "view",
      "type": "function"
    },
    {
      "inputs": [],
      "name": "owner",
      "outputs": [
        {
          "internalType": "address",
          "name": "",
          "type": "address"
        }
      ],
      "stateMutability": "view",
      "type": "function"
    },
    {
      "inputs": [
        {
          "internalType": "uint256",
          "name": "tokenId",
          "type": "uint256"
        }
      ],
      "name": "ownerOf",
      "outputs": [
        {
          "internalType": "address",
          "name": "",
          "type": "address"
        }
      ],
      "stateMutability": "view",
      "type": "function"
    },
    {
      "inputs": [],
      "name": "renounceOwnership",
      "outputs": [],
      "stateMutability": "nonpayable",
      "type": "function"
    },
    {
      "inputs": [
        {
          "internalType": "address",
          "name": "from",
          "type": "address"
        },
        {
          "internalType": "address",
          "name": "to",
          "type": "address"
        },
        {
          "internalType": "uint256",
          "name": "tokenId",
          "type": "uint256"
        }
      ],
      "name": "safeTransferFrom",
      "outputs": [],
      "stateMutability": "nonpayable",
      "type": "function"
    },
    {
      "inputs": [
        {
          "internalType": "address",
          "name": "from",
          "type": "address"
        },
        {
          "internalType": "address",
          "name": "to",
          "type": "address"
        },
        {
          "internalType": "uint256",
          "name": "tokenId",
          "type": "uint256"
        },
        {
          "internalType": "bytes",
          "name": "data",
          "type": "bytes"
        }
      ],
      "name": "safeTransferFrom",
      "outputs": [],
      "stateMutability": "nonpayable",
      "type": "function"
    },
    {
      "inputs": [
        {
          "internalType": "address",
          "name": "operator",
          "type": "address"
        },
        {
          "internalType": "bool",
          "name": "approved",
          "type": "bool"
        }
      ],
      "name": "setApprovalForAll",
      "outputs": [],
      "stateMutability": "nonpayable",
      "type": "function"
    },
    {
      "inputs": [
        {
          "internalType": "bytes4",
          "name": "interfaceId",
          "type": "bytes4"
        }
      ],
      "name": "supportsInterface",
      "outputs": [
        {
          "internalType": "bool",
          "name": "",
          "type": "bool"
        }
      ],
      "stateMutability": "view",
      "type": "function"
    },
    {
      "inputs": [],
      "name": "symbol",
      "outputs": [
        {
          "internalType": "string",
          "name": "",
          "type": "string"
        }
      ],
      "stateMutability": "view",
      "type": "function"
    },
    {
      "inputs": [
        {
          "internalType": "address",
          "name": "from",
          "type": "address"
        },
        {
          "internalType": "address",
          "name": "to",
          "type": "address"
        },
        {
          "internalType": "uint256",
          "name": "tokenId",
          "type": "uint256"
        }
      ],
      "name": "transferFrom",
      "outputs": [],
      "stateMutability": "nonpayable",
      "type": "function"
    },
    {
      "inputs": [
        {
          "internalType": "address",
          "name": "newOwner",
          "type": "address"
        }
      ],
      "name": "transferOwnership",
      "outputs": [],
      "stateMutability": "nonpayable",
      "type": "function"
    },
    {
      "inputs": [
        {
          "internalType": "address",
          "name": "to",
          "type": "address"
        },
        {
          "internalType": "uint24[12]",
          "name": "INcolors",
          "type": "uint24[12]"
        },
        {
          "internalType": "string",
          "name": "INuri",
          "type": "string"
        }
      ],
      "name": "safeMint",
      "outputs": [],
      "stateMutability": "nonpayable",
      "type": "function"
    },
    {
      "inputs": [
        {
          "internalType": "uint256",
          "name": "tokenId",
          "type": "uint256"
        }
      ],
      "name": "tokenURI",
      "outputs": [
        {
          "internalType": "string",
          "name": "",
          "type": "string"
        }
      ],
      "stateMutability": "view",
      "type": "function"
    }
  ],
  "bytecode": "0x60806040523480156200001157600080fd5b506040518060400160405280600581526020017f437279736d0000000000000000000000000000000000000000000000000000008152506040518060400160405280600481526020017f4352534d0000000000000000000000000000000000000000000000000000000081525081600090816200008f919062000453565b508060019081620000a1919062000453565b505050620000c4620000b86200010b60201b60201c565b6200011360201b60201c565b600060086000600c8110620000de57620000dd6200053a565b5b600a91828204019190066003026101000a81548162ffffff021916908362ffffff16021790555062000569565b600033905090565b6000600760009054906101000a900473ffffffffffffffffffffffffffffffffffffffff16905081600760006101000a81548173ffffffffffffffffffffffffffffffffffffffff021916908373ffffffffffffffffffffffffffffffffffffffff1602179055508173ffffffffffffffffffffffffffffffffffffffff168173ffffffffffffffffffffffffffffffffffffffff167f8be0079c531659141344cd1fd0a4f28419497f9722a3daafe3b4186f6b6457e060405160405180910390a35050565b600081519050919050565b7f4e487b7100000000000000000000000000000000000000000000000000000000600052604160045260246000fd5b7f4e487b7100000000000000000000000000000000000000000000000000000000600052602260045260246000fd5b600060028204905060018216806200025b57607f821691505b60208210810362000271576200027062000213565b5b50919050565b60008190508160005260206000209050919050565b60006020601f8301049050919050565b600082821b905092915050565b600060088302620002db7fffffffffffffffffffffffffffffffffffffffffffffffffffffffffffffffff826200029c565b620002e786836200029c565b95508019841693508086168417925050509392505050565b6000819050919050565b6000819050919050565b6000620003346200032e6200032884620002ff565b62000309565b620002ff565b9050919050565b6000819050919050565b620003508362000313565b620003686200035f826200033b565b848454620002a9565b825550505050565b600090565b6200037f62000370565b6200038c81848462000345565b505050565b5b81811015620003b457620003a860008262000375565b60018101905062000392565b5050565b601f8211156200040357620003cd8162000277565b620003d8846200028c565b81016020851015620003e8578190505b62000400620003f7856200028c565b83018262000391565b50505b505050565b600082821c905092915050565b6000620004286000198460080262000408565b1980831691505092915050565b600062000443838362000415565b9150826002028217905092915050565b6200045e82620001d9565b67ffffffffffffffff8111156200047a5762000479620001e4565b5b62000486825462000242565b62000493828285620003b8565b600060209050601f831160018114620004cb5760008415620004b6578287015190505b620004c2858262000435565b86555062000532565b601f198416620004db8662000277565b60005b828110156200050557848901518255600182019150602085019450602081019050620004de565b8683101562000525578489015162000521601f89168262000415565b8355505b6001600288020188555050505b505050505050565b7f4e487b7100000000000000000000000000000000000000000000000000000000600052603260045260246000fd5b6131df80620005796000396000f3fe608060405234801561001057600080fd5b50600436106101165760003560e01c80638da5cb5b116100a2578063bd11f69d11610071578063bd11f69d146102cb578063c579fb05146102fb578063c87b56dd14610317578063e985e9c514610347578063f2fde38b1461037757610116565b80638da5cb5b1461025757806395d89b4114610275578063a22cb46514610293578063b88d4fde146102af57610116565b806323b872dd116100e957806323b872dd146101b557806342842e0e146101d15780636352211e146101ed57806370a082311461021d578063715018a61461024d57610116565b806301ffc9a71461011b57806306fdde031461014b578063081812fc14610169578063095ea7b314610199575b600080fd5b61013560048036038101906101309190611d68565b610393565b6040516101429190611db0565b60405180910390f35b610153610475565b6040516101609190611e5b565b60405180910390f35b610183600480360381019061017e9190611eb3565b610507565b6040516101909190611f21565b60405180910390f35b6101b360048036038101906101ae9190611f68565b61054d565b005b6101cf60048036038101906101ca9190611fa8565b610664565b005b6101eb60048036038101906101e69190611fa8565b6106c4565b005b61020760048036038101906102029190611eb3565b6106e4565b6040516102149190611f21565b60405180910390f35b61023760048036038101906102329190611ffb565b61076a565b6040516102449190612037565b60405180910390f35b610255610821565b005b61025f610835565b60405161026c9190611f21565b60405180910390f35b61027d61085f565b60405161028a9190611e5b565b60405180910390f35b6102ad60048036038101906102a8919061207e565b6108f1565b005b6102c960048036038101906102c491906121f3565b610907565b005b6102e560048036038101906102e09190611eb3565b610969565b6040516102f29190612294565b60405180910390f35b61031560048036038101906103109190612432565b610998565b005b610331600480360381019061032c9190611eb3565b610a90565b60405161033e9190611e5b565b60405180910390f35b610361600480360381019061035c91906124a3565b610aa2565b60405161036e9190611db0565b60405180910390f35b610391600480360381019061038c9190611ffb565b610b36565b005b60007f80ac58cd000000000000000000000000000000000000000000000000000000007bffffffffffffffffffffffffffffffffffffffffffffffffffffffff1916827bffffffffffffffffffffffffffffffffffffffffffffffffffffffff1916148061045e57507f5b5e139f000000000000000000000000000000000000000000000000000000007bffffffffffffffffffffffffffffffffffffffffffffffffffffffff1916827bffffffffffffffffffffffffffffffffffffffffffffffffffffffff1916145b8061046e575061046d82610bb9565b5b9050919050565b60606000805461048490612512565b80601f01602080910402602001604051908101604052809291908181526020018280546104b090612512565b80156104fd5780601f106104d2576101008083540402835291602001916104fd565b820191906000526020600020905b8154815290600101906020018083116104e057829003601f168201915b5050505050905090565b600061051282610c23565b6004600083815260200190815260200160002060009054906101000a900473ffffffffffffffffffffffffffffffffffffffff169050919050565b6000610558826106e4565b90508073ffffffffffffffffffffffffffffffffffffffff168373ffffffffffffffffffffffffffffffffffffffff16036105c8576040517f08c379a00000000000000000000000000000000000000000000000000000000081526004016105bf906125b5565b60405180910390fd5b8073ffffffffffffffffffffffffffffffffffffffff166105e7610c6e565b73ffffffffffffffffffffffffffffffffffffffff161480610616575061061581610610610c6e565b610aa2565b5b610655576040517f08c379a000000000000000000000000000000000000000000000000000000000815260040161064c90612647565b60405180910390fd5b61065f8383610c76565b505050565b61067561066f610c6e565b82610d2f565b6106b4576040517f08c379a00000000000000000000000000000000000000000000000000000000081526004016106ab906126d9565b60405180910390fd5b6106bf838383610dc4565b505050565b6106df83838360405180602001604052806000815250610907565b505050565b6000806106f0836110bd565b9050600073ffffffffffffffffffffffffffffffffffffffff168173ffffffffffffffffffffffffffffffffffffffff1603610761576040517f08c379a000000000000000000000000000000000000000000000000000000000815260040161075890612745565b60405180910390fd5b80915050919050565b60008073ffffffffffffffffffffffffffffffffffffffff168273ffffffffffffffffffffffffffffffffffffffff16036107da576040517f08c379a00000000000000000000000000000000000000000000000000000000081526004016107d1906127d7565b60405180910390fd5b600360008373ffffffffffffffffffffffffffffffffffffffff1673ffffffffffffffffffffffffffffffffffffffff168152602001908152602001600020549050919050565b6108296110fa565b6108336000611178565b565b6000600760009054906101000a900473ffffffffffffffffffffffffffffffffffffffff16905090565b60606001805461086e90612512565b80601f016020809104026020016040519081016040528092919081815260200182805461089a90612512565b80156108e75780601f106108bc576101008083540402835291602001916108e7565b820191906000526020600020905b8154815290600101906020018083116108ca57829003601f168201915b5050505050905090565b6109036108fc610c6e565b838361123e565b5050565b610918610912610c6e565b83610d2f565b610957576040517f08c379a000000000000000000000000000000000000000000000000000000000815260040161094e906126d9565b60405180910390fd5b610963848484846113aa565b50505050565b600881600c811061097957600080fd5b600a9182820401919006600302915054906101000a900462ffffff1681565b6109a06110fa565b60006109ab8461076a565b146109eb576040517f08c379a00000000000000000000000000000000000000000000000000000000081526004016109e290612869565b60405180910390fd5b60005b600c811015610a5d578281600c8110610a0a57610a09612889565b5b6020020151600882600c8110610a2357610a22612889565b5b600a91828204019190066003026101000a81548162ffffff021916908362ffffff1602179055508080610a55906128e7565b9150506109ee565b506000610a6a600a611406565b9050610a76600a611414565b610a80848261142a565b610a8a8183611448565b50505050565b6060610a9b826114b5565b9050919050565b6000600560008473ffffffffffffffffffffffffffffffffffffffff1673ffffffffffffffffffffffffffffffffffffffff16815260200190815260200160002060008373ffffffffffffffffffffffffffffffffffffffff1673ffffffffffffffffffffffffffffffffffffffff16815260200190815260200160002060009054906101000a900460ff16905092915050565b610b3e6110fa565b600073ffffffffffffffffffffffffffffffffffffffff168173ffffffffffffffffffffffffffffffffffffffff1603610bad576040517f08c379a0000000000000000000000000000000000000000000000000000000008152600401610ba4906129a1565b60405180910390fd5b610bb681611178565b50565b60007f01ffc9a7000000000000000000000000000000000000000000000000000000007bffffffffffffffffffffffffffffffffffffffffffffffffffffffff1916827bffffffffffffffffffffffffffffffffffffffffffffffffffffffff1916149050919050565b610c2c816115c7565b610c6b576040517f08c379a0000000000000000000000000000000000000000000000000000000008152600401610c6290612745565b60405180910390fd5b50565b600033905090565b816004600083815260200190815260200160002060006101000a81548173ffffffffffffffffffffffffffffffffffffffff021916908373ffffffffffffffffffffffffffffffffffffffff160217905550808273ffffffffffffffffffffffffffffffffffffffff16610ce9836106e4565b73ffffffffffffffffffffffffffffffffffffffff167f8c5be1e5ebec7d5bd14f71427d1e84f3dd0314c0f7b2291e5b200ac8c7c3b92560405160405180910390a45050565b600080610d3b836106e4565b90508073ffffffffffffffffffffffffffffffffffffffff168473ffffffffffffffffffffffffffffffffffffffff161480610d7d5750610d7c8185610aa2565b5b80610dbb57508373ffffffffffffffffffffffffffffffffffffffff16610da384610507565b73ffffffffffffffffffffffffffffffffffffffff16145b91505092915050565b8273ffffffffffffffffffffffffffffffffffffffff16610de4826106e4565b73ffffffffffffffffffffffffffffffffffffffff1614610e3a576040517f08c379a0000000000000000000000000000000000000000000000000000000008152600401610e3190612a33565b60405180910390fd5b600073ffffffffffffffffffffffffffffffffffffffff168273ffffffffffffffffffffffffffffffffffffffff1603610ea9576040517f08c379a0000000000000000000000000000000000000000000000000000000008152600401610ea090612ac5565b60405180910390fd5b610eb68383836001611608565b8273ffffffffffffffffffffffffffffffffffffffff16610ed6826106e4565b73ffffffffffffffffffffffffffffffffffffffff1614610f2c576040517f08c379a0000000000000000000000000000000000000000000000000000000008152600401610f2390612a33565b60405180910390fd5b6004600082815260200190815260200160002060006101000a81549073ffffffffffffffffffffffffffffffffffffffff02191690556001600360008573ffffffffffffffffffffffffffffffffffffffff1673ffffffffffffffffffffffffffffffffffffffff168152602001908152602001600020600082825403925050819055506001600360008473ffffffffffffffffffffffffffffffffffffffff1673ffffffffffffffffffffffffffffffffffffffff16815260200190815260200160002060008282540192505081905550816002600083815260200190815260200160002060006101000a81548173ffffffffffffffffffffffffffffffffffffffff021916908373ffffffffffffffffffffffffffffffffffffffff160217905550808273ffffffffffffffffffffffffffffffffffffffff168473ffffffffffffffffffffffffffffffffffffffff167fddf252ad1be2c89b69c2b068fc378daa952ba7f163c4a11628f55a4df523b3ef60405160405180910390a46110b8838383600161160e565b505050565b60006002600083815260200190815260200160002060009054906101000a900473ffffffffffffffffffffffffffffffffffffffff169050919050565b611102610c6e565b73ffffffffffffffffffffffffffffffffffffffff16611120610835565b73ffffffffffffffffffffffffffffffffffffffff1614611176576040517f08c379a000000000000000000000000000000000000000000000000000000000815260040161116d90612b31565b60405180910390fd5b565b6000600760009054906101000a900473ffffffffffffffffffffffffffffffffffffffff16905081600760006101000a81548173ffffffffffffffffffffffffffffffffffffffff021916908373ffffffffffffffffffffffffffffffffffffffff1602179055508173ffffffffffffffffffffffffffffffffffffffff168173ffffffffffffffffffffffffffffffffffffffff167f8be0079c531659141344cd1fd0a4f28419497f9722a3daafe3b4186f6b6457e060405160405180910390a35050565b8173ffffffffffffffffffffffffffffffffffffffff168373ffffffffffffffffffffffffffffffffffffffff16036112ac576040517f08c379a00000000000000000000000000000000000000000000000000000000081526004016112a390612b9d565b60405180910390fd5b80600560008573ffffffffffffffffffffffffffffffffffffffff1673ffffffffffffffffffffffffffffffffffffffff16815260200190815260200160002060008473ffffffffffffffffffffffffffffffffffffffff1673ffffffffffffffffffffffffffffffffffffffff16815260200190815260200160002060006101000a81548160ff0219169083151502179055508173ffffffffffffffffffffffffffffffffffffffff168373ffffffffffffffffffffffffffffffffffffffff167f17307eab39ab6107e8899845ad3d59bd9653f200f220920489ca2b5937696c318360405161139d9190611db0565b60405180910390a3505050565b6113b5848484610dc4565b6113c184848484611614565b611400576040517f08c379a00000000000000000000000000000000000000000000000000000000081526004016113f790612c2f565b60405180910390fd5b50505050565b600081600001549050919050565b6001816000016000828254019250508190555050565b61144482826040518060200160405280600081525061179b565b5050565b611451826115c7565b611490576040517f08c379a000000000000000000000000000000000000000000000000000000000815260040161148790612cc1565b60405180910390fd5b806006600084815260200190815260200160002090816114b09190612e8d565b505050565b60606114c082610c23565b60006006600084815260200190815260200160002080546114e090612512565b80601f016020809104026020016040519081016040528092919081815260200182805461150c90612512565b80156115595780601f1061152e57610100808354040283529160200191611559565b820191906000526020600020905b81548152906001019060200180831161153c57829003601f168201915b50505050509050600061156a6117f6565b9050600081510361157f5781925050506115c2565b6000825111156115b457808260405160200161159c929190612f9b565b604051602081830303815290604052925050506115c2565b6115bd84611833565b925050505b919050565b60008073ffffffffffffffffffffffffffffffffffffffff166115e9836110bd565b73ffffffffffffffffffffffffffffffffffffffff1614159050919050565b50505050565b50505050565b60006116358473ffffffffffffffffffffffffffffffffffffffff1661189b565b1561178e578373ffffffffffffffffffffffffffffffffffffffff1663150b7a0261165e610c6e565b8786866040518563ffffffff1660e01b81526004016116809493929190613014565b6020604051808303816000875af19250505080156116bc57506040513d601f19601f820116820180604052508101906116b99190613075565b60015b61173e573d80600081146116ec576040519150601f19603f3d011682016040523d82523d6000602084013e6116f1565b606091505b506000815103611736576040517f08c379a000000000000000000000000000000000000000000000000000000000815260040161172d90612c2f565b60405180910390fd5b805181602001fd5b63150b7a0260e01b7bffffffffffffffffffffffffffffffffffffffffffffffffffffffff1916817bffffffffffffffffffffffffffffffffffffffffffffffffffffffff191614915050611793565b600190505b949350505050565b6117a583836118be565b6117b26000848484611614565b6117f1576040517f08c379a00000000000000000000000000000000000000000000000000000000081526004016117e890612c2f565b60405180910390fd5b505050565b60606040518060400160405280601f81526020017f544f444f202d2068747470733a2f2f6578616d706c652e636f6d2f6e66742f00815250905090565b606061183e82610c23565b60006118486117f6565b905060008151116118685760405180602001604052806000815250611893565b8061187284611adb565b604051602001611883929190612f9b565b6040516020818303038152906040525b915050919050565b6000808273ffffffffffffffffffffffffffffffffffffffff163b119050919050565b600073ffffffffffffffffffffffffffffffffffffffff168273ffffffffffffffffffffffffffffffffffffffff160361192d576040517f08c379a0000000000000000000000000000000000000000000000000000000008152600401611924906130ee565b60405180910390fd5b611936816115c7565b15611976576040517f08c379a000000000000000000000000000000000000000000000000000000000815260040161196d9061315a565b60405180910390fd5b611984600083836001611608565b61198d816115c7565b156119cd576040517f08c379a00000000000000000000000000000000000000000000000000000000081526004016119c49061315a565b60405180910390fd5b6001600360008473ffffffffffffffffffffffffffffffffffffffff1673ffffffffffffffffffffffffffffffffffffffff16815260200190815260200160002060008282540192505081905550816002600083815260200190815260200160002060006101000a81548173ffffffffffffffffffffffffffffffffffffffff021916908373ffffffffffffffffffffffffffffffffffffffff160217905550808273ffffffffffffffffffffffffffffffffffffffff16600073ffffffffffffffffffffffffffffffffffffffff167fddf252ad1be2c89b69c2b068fc378daa952ba7f163c4a11628f55a4df523b3ef60405160405180910390a4611ad760008383600161160e565b5050565b606060006001611aea84611ba9565b01905060008167ffffffffffffffff811115611b0957611b086120c8565b5b6040519080825280601f01601f191660200182016040528015611b3b5781602001600182028036833780820191505090505b509050600082602001820190505b600115611b9e578080600190039150507f3031323334353637383961626364656600000000000000000000000000000000600a86061a8153600a8581611b9257611b9161317a565b5b04945060008503611b49575b819350505050919050565b600080600090507a184f03e93ff9f4daa797ed6e38ed64bf6a1f0100000000000000008310611c07577a184f03e93ff9f4daa797ed6e38ed64bf6a1f0100000000000000008381611bfd57611bfc61317a565b5b0492506040810190505b6d04ee2d6d415b85acef81000000008310611c44576d04ee2d6d415b85acef81000000008381611c3a57611c3961317a565b5b0492506020810190505b662386f26fc100008310611c7357662386f26fc100008381611c6957611c6861317a565b5b0492506010810190505b6305f5e1008310611c9c576305f5e1008381611c9257611c9161317a565b5b0492506008810190505b6127108310611cc1576127108381611cb757611cb661317a565b5b0492506004810190505b60648310611ce45760648381611cda57611cd961317a565b5b0492506002810190505b600a8310611cf3576001810190505b80915050919050565b6000604051905090565b600080fd5b600080fd5b60007fffffffff0000000000000000000000000000000000000000000000000000000082169050919050565b611d4581611d10565b8114611d5057600080fd5b50565b600081359050611d6281611d3c565b92915050565b600060208284031215611d7e57611d7d611d06565b5b6000611d8c84828501611d53565b91505092915050565b60008115159050919050565b611daa81611d95565b82525050565b6000602082019050611dc56000830184611da1565b92915050565b600081519050919050565b600082825260208201905092915050565b60005b83811015611e05578082015181840152602081019050611dea565b60008484015250505050565b6000601f19601f8301169050919050565b6000611e2d82611dcb565b611e378185611dd6565b9350611e47818560208601611de7565b611e5081611e11565b840191505092915050565b60006020820190508181036000830152611e758184611e22565b905092915050565b6000819050919050565b611e9081611e7d565b8114611e9b57600080fd5b50565b600081359050611ead81611e87565b92915050565b600060208284031215611ec957611ec8611d06565b5b6000611ed784828501611e9e565b91505092915050565b600073ffffffffffffffffffffffffffffffffffffffff82169050919050565b6000611f0b82611ee0565b9050919050565b611f1b81611f00565b82525050565b6000602082019050611f366000830184611f12565b92915050565b611f4581611f00565b8114611f5057600080fd5b50565b600081359050611f6281611f3c565b92915050565b60008060408385031215611f7f57611f7e611d06565b5b6000611f8d85828601611f53565b9250506020611f9e85828601611e9e565b9150509250929050565b600080600060608486031215611fc157611fc0611d06565b5b6000611fcf86828701611f53565b9350506020611fe086828701611f53565b9250506040611ff186828701611e9e565b9150509250925092565b60006020828403121561201157612010611d06565b5b600061201f84828501611f53565b91505092915050565b61203181611e7d565b82525050565b600060208201905061204c6000830184612028565b92915050565b61205b81611d95565b811461206657600080fd5b50565b60008135905061207881612052565b92915050565b6000806040838503121561209557612094611d06565b5b60006120a385828601611f53565b92505060206120b485828601612069565b9150509250929050565b600080fd5b600080fd5b7f4e487b7100000000000000000000000000000000000000000000000000000000600052604160045260246000fd5b61210082611e11565b810181811067ffffffffffffffff8211171561211f5761211e6120c8565b5b80604052505050565b6000612132611cfc565b905061213e82826120f7565b919050565b600067ffffffffffffffff82111561215e5761215d6120c8565b5b61216782611e11565b9050602081019050919050565b82818337600083830152505050565b600061219661219184612143565b612128565b9050828152602081018484840111156121b2576121b16120c3565b5b6121bd848285612174565b509392505050565b600082601f8301126121da576121d96120be565b5b81356121ea848260208601612183565b91505092915050565b6000806000806080858703121561220d5761220c611d06565b5b600061221b87828801611f53565b945050602061222c87828801611f53565b935050604061223d87828801611e9e565b925050606085013567ffffffffffffffff81111561225e5761225d611d0b565b5b61226a878288016121c5565b91505092959194509250565b600062ffffff82169050919050565b61228e81612276565b82525050565b60006020820190506122a96000830184612285565b92915050565b600067ffffffffffffffff8211156122ca576122c96120c8565b5b602082029050919050565b600080fd5b6122e381612276565b81146122ee57600080fd5b50565b600081359050612300816122da565b92915050565b6000612319612314846122af565b612128565b90508060208402830185811115612333576123326122d5565b5b835b8181101561235c578061234888826122f1565b845260208401935050602081019050612335565b5050509392505050565b600082601f83011261237b5761237a6120be565b5b600c612388848285612306565b91505092915050565b600067ffffffffffffffff8211156123ac576123ab6120c8565b5b6123b582611e11565b9050602081019050919050565b60006123d56123d084612391565b612128565b9050828152602081018484840111156123f1576123f06120c3565b5b6123fc848285612174565b509392505050565b600082601f830112612419576124186120be565b5b81356124298482602086016123c2565b91505092915050565b60008060006101c0848603121561244c5761244b611d06565b5b600061245a86828701611f53565b935050602061246b86828701612366565b9250506101a084013567ffffffffffffffff81111561248d5761248c611d0b565b5b61249986828701612404565b9150509250925092565b600080604083850312156124ba576124b9611d06565b5b60006124c885828601611f53565b92505060206124d985828601611f53565b9150509250929050565b7f4e487b7100000000000000000000000000000000000000000000000000000000600052602260045260246000fd5b6000600282049050600182168061252a57607f821691505b60208210810361253d5761253c6124e3565b5b50919050565b7f4552433732313a20617070726f76616c20746f2063757272656e74206f776e6560008201527f7200000000000000000000000000000000000000000000000000000000000000602082015250565b600061259f602183611dd6565b91506125aa82612543565b604082019050919050565b600060208201905081810360008301526125ce81612592565b9050919050565b7f4552433732313a20617070726f76652063616c6c6572206973206e6f7420746f60008201527f6b656e206f776e6572206f7220617070726f76656420666f7220616c6c000000602082015250565b6000612631603d83611dd6565b915061263c826125d5565b604082019050919050565b6000602082019050818103600083015261266081612624565b9050919050565b7f4552433732313a2063616c6c6572206973206e6f7420746f6b656e206f776e6560008201527f72206f7220617070726f76656400000000000000000000000000000000000000602082015250565b60006126c3602d83611dd6565b91506126ce82612667565b604082019050919050565b600060208201905081810360008301526126f2816126b6565b9050919050565b7f4552433732313a20696e76616c696420746f6b656e2049440000000000000000600082015250565b600061272f601883611dd6565b915061273a826126f9565b602082019050919050565b6000602082019050818103600083015261275e81612722565b9050919050565b7f4552433732313a2061646472657373207a65726f206973206e6f74206120766160008201527f6c6964206f776e65720000000000000000000000000000000000000000000000602082015250565b60006127c1602983611dd6565b91506127cc82612765565b604082019050919050565b600060208201905081810360008301526127f0816127b4565b9050919050565b7f54686973206164647265737320616c7265616479206f776e732061204372797360008201527f6d00000000000000000000000000000000000000000000000000000000000000602082015250565b6000612853602183611dd6565b915061285e826127f7565b604082019050919050565b6000602082019050818103600083015261288281612846565b9050919050565b7f4e487b7100000000000000000000000000000000000000000000000000000000600052603260045260246000fd5b7f4e487b7100000000000000000000000000000000000000000000000000000000600052601160045260246000fd5b60006128f282611e7d565b91507fffffffffffffffffffffffffffffffffffffffffffffffffffffffffffffffff8203612924576129236128b8565b5b600182019050919050565b7f4f776e61626c653a206e6577206f776e657220697320746865207a65726f206160008201527f6464726573730000000000000000000000000000000000000000000000000000602082015250565b600061298b602683611dd6565b91506129968261292f565b604082019050919050565b600060208201905081810360008301526129ba8161297e565b9050919050565b7f4552433732313a207472616e736665722066726f6d20696e636f72726563742060008201527f6f776e6572000000000000000000000000000000000000000000000000000000602082015250565b6000612a1d602583611dd6565b9150612a28826129c1565b604082019050919050565b60006020820190508181036000830152612a4c81612a10565b9050919050565b7f4552433732313a207472616e7366657220746f20746865207a65726f2061646460008201527f7265737300000000000000000000000000000000000000000000000000000000602082015250565b6000612aaf602483611dd6565b9150612aba82612a53565b604082019050919050565b60006020820190508181036000830152612ade81612aa2565b9050919050565b7f4f776e61626c653a2063616c6c6572206973206e6f7420746865206f776e6572600082015250565b6000612b1b602083611dd6565b9150612b2682612ae5565b602082019050919050565b60006020820190508181036000830152612b4a81612b0e565b9050919050565b7f4552433732313a20617070726f766520746f2063616c6c657200000000000000600082015250565b6000612b87601983611dd6565b9150612b9282612b51565b602082019050919050565b60006020820190508181036000830152612bb681612b7a565b9050919050565b7f4552433732313a207472616e7366657220746f206e6f6e20455243373231526560008201527f63656976657220696d706c656d656e7465720000000000000000000000000000602082015250565b6000612c19603283611dd6565b9150612c2482612bbd565b604082019050919050565b60006020820190508181036000830152612c4881612c0c565b9050919050565b7f45524337323155524953746f726167653a2055524920736574206f66206e6f6e60008201527f6578697374656e7420746f6b656e000000000000000000000000000000000000602082015250565b6000612cab602e83611dd6565b9150612cb682612c4f565b604082019050919050565b60006020820190508181036000830152612cda81612c9e565b9050919050565b60008190508160005260206000209050919050565b60006020601f8301049050919050565b600082821b905092915050565b600060088302612d437fffffffffffffffffffffffffffffffffffffffffffffffffffffffffffffffff82612d06565b612d4d8683612d06565b95508019841693508086168417925050509392505050565b6000819050919050565b6000612d8a612d85612d8084611e7d565b612d65565b611e7d565b9050919050565b6000819050919050565b612da483612d6f565b612db8612db082612d91565b848454612d13565b825550505050565b600090565b612dcd612dc0565b612dd8818484612d9b565b505050565b5b81811015612dfc57612df1600082612dc5565b600181019050612dde565b5050565b601f821115612e4157612e1281612ce1565b612e1b84612cf6565b81016020851015612e2a578190505b612e3e612e3685612cf6565b830182612ddd565b50505b505050565b600082821c905092915050565b6000612e6460001984600802612e46565b1980831691505092915050565b6000612e7d8383612e53565b9150826002028217905092915050565b612e9682611dcb565b67ffffffffffffffff811115612eaf57612eae6120c8565b5b612eb98254612512565b612ec4828285612e00565b600060209050601f831160018114612ef75760008415612ee5578287015190505b612eef8582612e71565b865550612f57565b601f198416612f0586612ce1565b60005b82811015612f2d57848901518255600182019150602085019450602081019050612f08565b86831015612f4a5784890151612f46601f891682612e53565b8355505b6001600288020188555050505b505050505050565b600081905092915050565b6000612f7582611dcb565b612f7f8185612f5f565b9350612f8f818560208601611de7565b80840191505092915050565b6000612fa78285612f6a565b9150612fb38284612f6a565b91508190509392505050565b600081519050919050565b600082825260208201905092915050565b6000612fe682612fbf565b612ff08185612fca565b9350613000818560208601611de7565b61300981611e11565b840191505092915050565b60006080820190506130296000830187611f12565b6130366020830186611f12565b6130436040830185612028565b81810360608301526130558184612fdb565b905095945050505050565b60008151905061306f81611d3c565b92915050565b60006020828403121561308b5761308a611d06565b5b600061309984828501613060565b91505092915050565b7f4552433732313a206d696e7420746f20746865207a65726f2061646472657373600082015250565b60006130d8602083611dd6565b91506130e3826130a2565b602082019050919050565b60006020820190508181036000830152613107816130cb565b9050919050565b7f4552433732313a20746f6b656e20616c7265616479206d696e74656400000000600082015250565b6000613144601c83611dd6565b915061314f8261310e565b602082019050919050565b6000602082019050818103600083015261317381613137565b9050919050565b7f4e487b7100000000000000000000000000000000000000000000000000000000600052601260045260246000fdfea26469706673582212204d0da5f7eec1035a94c5ed3bbb3ee295c75f094f039ecd786920e236e6ba927f64736f6c63430008130033",
  "immutableReferences": {},
  "source": "// SPDX-License-Identifier: MIT\r\npragma solidity ^0.8.0;\r\n\r\nimport \"../node_modules/@openzeppelin/contracts/token/ERC721/ERC721.sol\";\r\nimport \"../node_modules/@openzeppelin/contracts/token/ERC721/extensions/ERC721URIStorage.sol\";\r\nimport \"../node_modules/@openzeppelin/contracts/access/Ownable.sol\";\r\nimport \"../node_modules/@openzeppelin/contracts/utils/Counters.sol\";\r\n\r\ncontract Crysm is ERC721, ERC721URIStorage, Ownable {\r\n    using Counters for Counters.Counter;\r\n    \r\n    uint24[12] public colors;\r\n\r\n    /*\r\n    uint8[12] public redValues;\r\n    uint8[12] public greenValues;\r\n    uint8[12] public blueValues;\r\n    */\r\n\r\n    Counters.Counter private _tokenIdCounter;\r\n\r\n    constructor() ERC721(\"Crysm\", \"CRSM\") {\r\n        colors[0]=0; //it should be by default, but remember WHY!\r\n    }\r\n\r\n    function _baseURI() internal pure override returns (string memory) {\r\n        return \"TODO - https://example.com/nft/\";\r\n    }\r\n\r\n    function safeMint(address to, uint24[12] memory INcolors, string memory INuri) public onlyOwner {\r\n        require(balanceOf(to)==0, \"This address already owns a Crysm\");\r\n\r\n        for(uint i=0; i<12; i++) {\r\n            colors[i]=INcolors[i];\r\n        }\r\n\r\n        uint256 tokenId = _tokenIdCounter.current();\r\n        _tokenIdCounter.increment();\r\n        _safeMint(to, tokenId);\r\n        _setTokenURI(tokenId, INuri);\r\n    }\r\n\r\n    // The following functions are overrides required by Solidity.\r\n\r\n    function _burn(uint256 tokenId) internal override(ERC721, ERC721URIStorage) {\r\n        super._burn(tokenId);\r\n    }\r\n\r\n    function tokenURI(uint256 tokenId)\r\n        public\r\n        view\r\n        override(ERC721, ERC721URIStorage)\r\n        returns (string memory)\r\n    {\r\n        return super.tokenURI(tokenId);\r\n    }\r\n}",
  "sourcePath": "C:\\Users\\al.malerba\\Documents\\GitHub\\Crysm\\contracts\\crysm.sol",
  "compiler": {
    "name": "solc",
    "version": "0.8.19+commit.7dd6d404.Emscripten.clang"
  },
  "schemaVersion": "3.4.13",
  "updatedAt": "2023-06-08T15:49:29.919Z",
  "devdoc": {
    "events": {
      "Approval(address,address,uint256)": {
        "details": "Emitted when `owner` enables `approved` to manage the `tokenId` token."
      },
      "ApprovalForAll(address,address,bool)": {
        "details": "Emitted when `owner` enables or disables (`approved`) `operator` to manage all of its assets."
      },
      "Transfer(address,address,uint256)": {
        "details": "Emitted when `tokenId` token is transferred from `from` to `to`."
      }
    },
    "kind": "dev",
    "methods": {
      "approve(address,uint256)": {
        "details": "See {IERC721-approve}."
      },
      "balanceOf(address)": {
        "details": "See {IERC721-balanceOf}."
      },
      "getApproved(uint256)": {
        "details": "See {IERC721-getApproved}."
      },
      "isApprovedForAll(address,address)": {
        "details": "See {IERC721-isApprovedForAll}."
      },
      "name()": {
        "details": "See {IERC721Metadata-name}."
      },
      "owner()": {
        "details": "Returns the address of the current owner."
      },
      "ownerOf(uint256)": {
        "details": "See {IERC721-ownerOf}."
      },
      "renounceOwnership()": {
        "details": "Leaves the contract without owner. It will not be possible to call `onlyOwner` functions anymore. Can only be called by the current owner. NOTE: Renouncing ownership will leave the contract without an owner, thereby removing any functionality that is only available to the owner."
      },
      "safeTransferFrom(address,address,uint256)": {
        "details": "See {IERC721-safeTransferFrom}."
      },
      "safeTransferFrom(address,address,uint256,bytes)": {
        "details": "See {IERC721-safeTransferFrom}."
      },
      "setApprovalForAll(address,bool)": {
        "details": "See {IERC721-setApprovalForAll}."
      },
      "supportsInterface(bytes4)": {
        "details": "See {IERC165-supportsInterface}."
      },
      "symbol()": {
        "details": "See {IERC721Metadata-symbol}."
      },
      "transferFrom(address,address,uint256)": {
        "details": "See {IERC721-transferFrom}."
      },
      "transferOwnership(address)": {
        "details": "Transfers ownership of the contract to a new account (`newOwner`). Can only be called by the current owner."
      }
    },
    "version": 1
  },
  "userdoc": {
    "kind": "user",
    "methods": {},
    "version": 1
  }
}