{
  "contractName": "SunflowerLandInventory",
  "abi": [
    {
      "inputs": [],
      "stateMutability": "payable",
      "type": "constructor"
    },
    {
      "anonymous": false,
      "inputs": [
        {
          "indexed": true,
          "internalType": "address",
          "name": "account",
          "type": "address"
        },
        {
          "indexed": true,
          "internalType": "address",
          "name": "operator",
          "type": "address"
        },
        {
          "indexed": false,
          "internalType": "bool",
          "name": "approved",
          "type": "bool"
        }
      ],
      "name": "ApprovalForAll",
      "type": "event"
    },
    {
      "anonymous": false,
      "inputs": [
        {
          "indexed": true,
          "internalType": "address",
          "name": "previousOwner",
          "type": "address"
        },
        {
          "indexed": true,
          "internalType": "address",
          "name": "newOwner",
          "type": "address"
        }
      ],
      "name": "OwnershipTransferred",
      "type": "event"
    },
    {
      "anonymous": false,
      "inputs": [
        {
          "indexed": false,
          "internalType": "address",
          "name": "account",
          "type": "address"
        }
      ],
      "name": "Paused",
      "type": "event"
    },
    {
      "anonymous": false,
      "inputs": [
        {
          "indexed": true,
          "internalType": "address",
          "name": "operator",
          "type": "address"
        },
        {
          "indexed": true,
          "internalType": "address",
          "name": "from",
          "type": "address"
        },
        {
          "indexed": true,
          "internalType": "address",
          "name": "to",
          "type": "address"
        },
        {
          "indexed": false,
          "internalType": "uint256[]",
          "name": "ids",
          "type": "uint256[]"
        },
        {
          "indexed": false,
          "internalType": "uint256[]",
          "name": "values",
          "type": "uint256[]"
        }
      ],
      "name": "TransferBatch",
      "type": "event"
    },
    {
      "anonymous": false,
      "inputs": [
        {
          "indexed": true,
          "internalType": "address",
          "name": "operator",
          "type": "address"
        },
        {
          "indexed": true,
          "internalType": "address",
          "name": "from",
          "type": "address"
        },
        {
          "indexed": true,
          "internalType": "address",
          "name": "to",
          "type": "address"
        },
        {
          "indexed": false,
          "internalType": "uint256",
          "name": "id",
          "type": "uint256"
        },
        {
          "indexed": false,
          "internalType": "uint256",
          "name": "value",
          "type": "uint256"
        }
      ],
      "name": "TransferSingle",
      "type": "event"
    },
    {
      "anonymous": false,
      "inputs": [
        {
          "indexed": false,
          "internalType": "string",
          "name": "value",
          "type": "string"
        },
        {
          "indexed": true,
          "internalType": "uint256",
          "name": "id",
          "type": "uint256"
        }
      ],
      "name": "URI",
      "type": "event"
    },
    {
      "anonymous": false,
      "inputs": [
        {
          "indexed": false,
          "internalType": "address",
          "name": "account",
          "type": "address"
        }
      ],
      "name": "Unpaused",
      "type": "event"
    },
    {
      "inputs": [
        {
          "internalType": "address",
          "name": "_game",
          "type": "address"
        }
      ],
      "name": "addGameRole",
      "outputs": [],
      "stateMutability": "nonpayable",
      "type": "function"
    },
    {
      "inputs": [
        {
          "internalType": "address",
          "name": "account",
          "type": "address"
        },
        {
          "internalType": "uint256",
          "name": "id",
          "type": "uint256"
        }
      ],
      "name": "balanceOf",
      "outputs": [
        {
          "internalType": "uint256",
          "name": "",
          "type": "uint256"
        }
      ],
      "stateMutability": "view",
      "type": "function"
    },
    {
      "inputs": [
        {
          "internalType": "address[]",
          "name": "accounts",
          "type": "address[]"
        },
        {
          "internalType": "uint256[]",
          "name": "ids",
          "type": "uint256[]"
        }
      ],
      "name": "balanceOfBatch",
      "outputs": [
        {
          "internalType": "uint256[]",
          "name": "",
          "type": "uint256[]"
        }
      ],
      "stateMutability": "view",
      "type": "function"
    },
    {
      "inputs": [
        {
          "internalType": "uint256",
          "name": "id",
          "type": "uint256"
        }
      ],
      "name": "exists",
      "outputs": [
        {
          "internalType": "bool",
          "name": "",
          "type": "bool"
        }
      ],
      "stateMutability": "view",
      "type": "function"
    },
    {
      "inputs": [
        {
          "internalType": "address",
          "name": "account",
          "type": "address"
        },
        {
          "internalType": "address",
          "name": "operator",
          "type": "address"
        }
      ],
      "name": "isApprovedForAll",
      "outputs": [
        {
          "internalType": "bool",
          "name": "",
          "type": "bool"
        }
      ],
      "stateMutability": "view",
      "type": "function"
    },
    {
      "inputs": [],
      "name": "owner",
      "outputs": [
        {
          "internalType": "address",
          "name": "",
          "type": "address"
        }
      ],
      "stateMutability": "view",
      "type": "function"
    },
    {
      "inputs": [],
      "name": "paused",
      "outputs": [
        {
          "internalType": "bool",
          "name": "",
          "type": "bool"
        }
      ],
      "stateMutability": "view",
      "type": "function"
    },
    {
      "inputs": [
        {
          "internalType": "address",
          "name": "_game",
          "type": "address"
        }
      ],
      "name": "removeGameRole",
      "outputs": [],
      "stateMutability": "nonpayable",
      "type": "function"
    },
    {
      "inputs": [],
      "name": "renounceOwnership",
      "outputs": [],
      "stateMutability": "nonpayable",
      "type": "function"
    },
    {
      "inputs": [
        {
          "internalType": "address",
          "name": "from",
          "type": "address"
        },
        {
          "internalType": "address",
          "name": "to",
          "type": "address"
        },
        {
          "internalType": "uint256[]",
          "name": "ids",
          "type": "uint256[]"
        },
        {
          "internalType": "uint256[]",
          "name": "amounts",
          "type": "uint256[]"
        },
        {
          "internalType": "bytes",
          "name": "data",
          "type": "bytes"
        }
      ],
      "name": "safeBatchTransferFrom",
      "outputs": [],
      "stateMutability": "nonpayable",
      "type": "function"
    },
    {
      "inputs": [
        {
          "internalType": "address",
          "name": "from",
          "type": "address"
        },
        {
          "internalType": "address",
          "name": "to",
          "type": "address"
        },
        {
          "internalType": "uint256",
          "name": "id",
          "type": "uint256"
        },
        {
          "internalType": "uint256",
          "name": "amount",
          "type": "uint256"
        },
        {
          "internalType": "bytes",
          "name": "data",
          "type": "bytes"
        }
      ],
      "name": "safeTransferFrom",
      "outputs": [],
      "stateMutability": "nonpayable",
      "type": "function"
    },
    {
      "inputs": [
        {
          "internalType": "address",
          "name": "operator",
          "type": "address"
        },
        {
          "internalType": "bool",
          "name": "approved",
          "type": "bool"
        }
      ],
      "name": "setApprovalForAll",
      "outputs": [],
      "stateMutability": "nonpayable",
      "type": "function"
    },
    {
      "inputs": [
        {
          "internalType": "bytes4",
          "name": "interfaceId",
          "type": "bytes4"
        }
      ],
      "name": "supportsInterface",
      "outputs": [
        {
          "internalType": "bool",
          "name": "",
          "type": "bool"
        }
      ],
      "stateMutability": "view",
      "type": "function"
    },
    {
      "inputs": [
        {
          "internalType": "uint256",
          "name": "id",
          "type": "uint256"
        }
      ],
      "name": "totalSupply",
      "outputs": [
        {
          "internalType": "uint256",
          "name": "",
          "type": "uint256"
        }
      ],
      "stateMutability": "view",
      "type": "function"
    },
    {
      "inputs": [
        {
          "internalType": "address",
          "name": "newOwner",
          "type": "address"
        }
      ],
      "name": "transferOwnership",
      "outputs": [],
      "stateMutability": "nonpayable",
      "type": "function"
    },
    {
      "inputs": [
        {
          "internalType": "uint256",
          "name": "",
          "type": "uint256"
        }
      ],
      "name": "uri",
      "outputs": [
        {
          "internalType": "string",
          "name": "",
          "type": "string"
        }
      ],
      "stateMutability": "view",
      "type": "function"
    },
    {
      "inputs": [
        {
          "internalType": "string",
          "name": "newuri",
          "type": "string"
        }
      ],
      "name": "setURI",
      "outputs": [
        {
          "internalType": "bool",
          "name": "",
          "type": "bool"
        }
      ],
      "stateMutability": "nonpayable",
      "type": "function"
    },
    {
      "inputs": [
        {
          "internalType": "address",
          "name": "to",
          "type": "address"
        },
        {
          "internalType": "uint256[]",
          "name": "ids",
          "type": "uint256[]"
        },
        {
          "internalType": "uint256[]",
          "name": "amounts",
          "type": "uint256[]"
        },
        {
          "internalType": "bytes",
          "name": "data",
          "type": "bytes"
        }
      ],
      "name": "gameMint",
      "outputs": [
        {
          "internalType": "bool",
          "name": "",
          "type": "bool"
        }
      ],
      "stateMutability": "nonpayable",
      "type": "function"
    },
    {
      "inputs": [
        {
          "internalType": "address",
          "name": "to",
          "type": "address"
        },
        {
          "internalType": "uint256[]",
          "name": "ids",
          "type": "uint256[]"
        },
        {
          "internalType": "uint256[]",
          "name": "amounts",
          "type": "uint256[]"
        }
      ],
      "name": "gameBurn",
      "outputs": [
        {
          "internalType": "bool",
          "name": "",
          "type": "bool"
        }
      ],
      "stateMutability": "nonpayable",
      "type": "function"
    },
    {
      "inputs": [
        {
          "internalType": "address",
          "name": "from",
          "type": "address"
        },
        {
          "internalType": "address",
          "name": "to",
          "type": "address"
        },
        {
          "internalType": "uint256[]",
          "name": "ids",
          "type": "uint256[]"
        },
        {
          "internalType": "uint256[]",
          "name": "amounts",
          "type": "uint256[]"
        },
        {
          "internalType": "bytes",
          "name": "data",
          "type": "bytes"
        }
      ],
      "name": "gameTransferFrom",
      "outputs": [
        {
          "internalType": "bool",
          "name": "",
          "type": "bool"
        }
      ],
      "stateMutability": "nonpayable",
      "type": "function"
    },
    {
      "inputs": [
        {
          "internalType": "address",
          "name": "owner",
          "type": "address"
        },
        {
          "internalType": "address",
          "name": "operator",
          "type": "address"
        },
        {
          "internalType": "bool",
          "name": "approved",
          "type": "bool"
        }
      ],
      "name": "gameSetApproval",
      "outputs": [
        {
          "internalType": "bool",
          "name": "",
          "type": "bool"
        }
      ],
      "stateMutability": "nonpayable",
      "type": "function"
    },
    {
      "inputs": [
        {
          "internalType": "uint256[]",
          "name": "ids",
          "type": "uint256[]"
        }
      ],
      "name": "totalSupplyBatch",
      "outputs": [
        {
          "internalType": "uint256[]",
          "name": "",
          "type": "uint256[]"
        }
      ],
      "stateMutability": "view",
      "type": "function"
    }
  ],
  "bytecode": "0x6080604052604051806060016040528060318152602001620044d5603191396200002f81620000c960201b60201c565b506200005062000044620000de60201b60201c565b620000e660201b60201c565b6000600660006101000a81548160ff0219169083151502179055506001600560003373ffffffffffffffffffffffffffffffffffffffff1673ffffffffffffffffffffffffffffffffffffffff16815260200190815260200160002060006101000a81548160ff0219169083151502179055506200050d565b8060029081620000da919062000426565b5050565b600033905090565b6000600460009054906101000a900473ffffffffffffffffffffffffffffffffffffffff16905081600460006101000a81548173ffffffffffffffffffffffffffffffffffffffff021916908373ffffffffffffffffffffffffffffffffffffffff1602179055508173ffffffffffffffffffffffffffffffffffffffff168173ffffffffffffffffffffffffffffffffffffffff167f8be0079c531659141344cd1fd0a4f28419497f9722a3daafe3b4186f6b6457e060405160405180910390a35050565b600081519050919050565b7f4e487b7100000000000000000000000000000000000000000000000000000000600052604160045260246000fd5b7f4e487b7100000000000000000000000000000000000000000000000000000000600052602260045260246000fd5b600060028204905060018216806200022e57607f821691505b602082108103620002445762000243620001e6565b5b50919050565b60008190508160005260206000209050919050565b60006020601f8301049050919050565b600082821b905092915050565b600060088302620002ae7fffffffffffffffffffffffffffffffffffffffffffffffffffffffffffffffff826200026f565b620002ba86836200026f565b95508019841693508086168417925050509392505050565b6000819050919050565b6000819050919050565b60006200030762000301620002fb84620002d2565b620002dc565b620002d2565b9050919050565b6000819050919050565b6200032383620002e6565b6200033b62000332826200030e565b8484546200027c565b825550505050565b600090565b6200035262000343565b6200035f81848462000318565b505050565b5b8181101562000387576200037b60008262000348565b60018101905062000365565b5050565b601f821115620003d657620003a0816200024a565b620003ab846200025f565b81016020851015620003bb578190505b620003d3620003ca856200025f565b83018262000364565b50505b505050565b600082821c905092915050565b6000620003fb60001984600802620003db565b1980831691505092915050565b6000620004168383620003e8565b9150826002028217905092915050565b6200043182620001ac565b67ffffffffffffffff8111156200044d576200044c620001b7565b5b62000459825462000215565b620004668282856200038b565b600060209050601f8311600181146200049e576000841562000489578287015190505b62000495858262000408565b86555062000505565b601f198416620004ae866200024a565b60005b82811015620004d857848901518255600182019150602085019450602081019050620004b1565b86831015620004f85784890151620004f4601f891682620003e8565b8355505b6001600288020188555050505b505050505050565b613fb8806200051d6000396000f3fe608060405234801561001057600080fd5b50600436106101415760003560e01c80637323b8fa116100b8578063aca17a251161007c578063aca17a25146103ac578063bd85b039146103dc578063cf7683d41461040c578063e985e9c51461043c578063f242432a1461046c578063f2fde38b1461048857610141565b80637323b8fa146102f657806377954ac2146103125780637990f854146103425780638da5cb5b14610372578063a22cb4651461039057610141565b80632eb2c2d61161010a5780632eb2c2d6146102225780634e1273f41461023e5780634f558e791461026e5780635c975abb1461029e5780635ea5285e146102bc578063715018a6146102ec57610141565b8062fdd58e1461014657806301ffc9a71461017657806302fe5305146101a65780630e89341c146101d657806319892b5114610206575b600080fd5b610160600480360381019061015b9190612475565b6104a4565b60405161016d91906124c4565b60405180910390f35b610190600480360381019061018b9190612537565b61056c565b60405161019d919061257f565b60405180910390f35b6101c060048036038101906101bb91906126e0565b61064e565b6040516101cd919061257f565b60405180910390f35b6101f060048036038101906101eb9190612729565b61066a565b6040516101fd91906127d5565b60405180910390f35b610220600480360381019061021b91906127f7565b6106fe565b005b61023c6004803603810190610237919061298d565b610761565b005b61025860048036038101906102539190612b1f565b610802565b6040516102659190612c55565b60405180910390f35b61028860048036038101906102839190612729565b61091b565b604051610295919061257f565b60405180910390f35b6102a661092f565b6040516102b3919061257f565b60405180910390f35b6102d660048036038101906102d19190612c77565b610946565b6040516102e3919061257f565b60405180910390f35b6102f46109fa565b005b610310600480360381019061030b91906127f7565b610a0e565b005b61032c60048036038101906103279190612d32565b610a71565b6040516103399190612c55565b60405180910390f35b61035c6004803603810190610357919061298d565b610b2a565b604051610369919061257f565b60405180910390f35b61037a610be0565b6040516103879190612d8a565b60405180910390f35b6103aa60048036038101906103a59190612dd1565b610c0a565b005b6103c660048036038101906103c19190612e11565b610c20565b6040516103d3919061257f565b60405180910390f35b6103f660048036038101906103f19190612729565b610cd2565b60405161040391906124c4565b60405180910390f35b61042660048036038101906104219190612e9c565b610cef565b604051610433919061257f565b60405180910390f35b61045660048036038101906104519190612eef565b610da1565b604051610463919061257f565b60405180910390f35b61048660048036038101906104819190612f2f565b610e35565b005b6104a2600480360381019061049d91906127f7565b610ed6565b005b60008073ffffffffffffffffffffffffffffffffffffffff168373ffffffffffffffffffffffffffffffffffffffff1603610514576040517f08c379a000000000000000000000000000000000000000000000000000000000815260040161050b90613038565b60405180910390fd5b60008083815260200190815260200160002060008473ffffffffffffffffffffffffffffffffffffffff1673ffffffffffffffffffffffffffffffffffffffff16815260200190815260200160002054905092915050565b60007fd9b67a26000000000000000000000000000000000000000000000000000000007bffffffffffffffffffffffffffffffffffffffffffffffffffffffff1916827bffffffffffffffffffffffffffffffffffffffffffffffffffffffff1916148061063757507f0e89341c000000000000000000000000000000000000000000000000000000007bffffffffffffffffffffffffffffffffffffffffffffffffffffffff1916827bffffffffffffffffffffffffffffffffffffffffffffffffffffffff1916145b80610647575061064682610f59565b5b9050919050565b6000610658610fc3565b61066182611041565b60019050919050565b60606002805461067990613087565b80601f01602080910402602001604051908101604052809291908181526020018280546106a590613087565b80156106f25780601f106106c7576101008083540402835291602001916106f2565b820191906000526020600020905b8154815290600101906020018083116106d557829003601f168201915b50505050509050919050565b610706610fc3565b6000600560008373ffffffffffffffffffffffffffffffffffffffff1673ffffffffffffffffffffffffffffffffffffffff16815260200190815260200160002060006101000a81548160ff02191690831515021790555050565b610769611054565b73ffffffffffffffffffffffffffffffffffffffff168573ffffffffffffffffffffffffffffffffffffffff1614806107af57506107ae856107a9611054565b610da1565b5b6107ee576040517f08c379a00000000000000000000000000000000000000000000000000000000081526004016107e59061312a565b60405180910390fd5b6107fb858585858561105c565b5050505050565b60608151835114610848576040517f08c379a000000000000000000000000000000000000000000000000000000000815260040161083f906131bc565b60405180910390fd5b6000835167ffffffffffffffff811115610865576108646125b5565b5b6040519080825280602002602001820160405280156108935781602001602082028036833780820191505090505b50905060005b8451811015610910576108e08582815181106108b8576108b76131dc565b5b60200260200101518583815181106108d3576108d26131dc565b5b60200260200101516104a4565b8282815181106108f3576108f26131dc565b5b602002602001018181525050806109099061323a565b9050610899565b508091505092915050565b60008061092783610cd2565b119050919050565b6000600660009054906101000a900460ff16905090565b60006001151560056000610958611054565b73ffffffffffffffffffffffffffffffffffffffff1673ffffffffffffffffffffffffffffffffffffffff16815260200190815260200160002060009054906101000a900460ff161515146109e2576040517f08c379a00000000000000000000000000000000000000000000000000000000081526004016109d9906132f4565b60405180910390fd5b6109ee8585858561137d565b60019050949350505050565b610a02610fc3565b610a0c60006115a9565b565b610a16610fc3565b6001600560008373ffffffffffffffffffffffffffffffffffffffff1673ffffffffffffffffffffffffffffffffffffffff16815260200190815260200160002060006101000a81548160ff02191690831515021790555050565b60606000825167ffffffffffffffff811115610a9057610a8f6125b5565b5b604051908082528060200260200182016040528015610abe5781602001602082028036833780820191505090505b50905060005b8351811015610b2057610af0848281518110610ae357610ae26131dc565b5b6020026020010151610cd2565b828281518110610b0357610b026131dc565b5b60200260200101818152505080610b199061323a565b9050610ac4565b5080915050919050565b60006001151560056000610b3c611054565b73ffffffffffffffffffffffffffffffffffffffff1673ffffffffffffffffffffffffffffffffffffffff16815260200190815260200160002060009054906101000a900460ff16151514610bc6576040517f08c379a0000000000000000000000000000000000000000000000000000000008152600401610bbd906132f4565b60405180910390fd5b610bd3868686868661105c565b6001905095945050505050565b6000600460009054906101000a900473ffffffffffffffffffffffffffffffffffffffff16905090565b610c1c610c15611054565b838361166f565b5050565b60006001151560056000610c32611054565b73ffffffffffffffffffffffffffffffffffffffff1673ffffffffffffffffffffffffffffffffffffffff16815260200190815260200160002060009054906101000a900460ff16151514610cbc576040517f08c379a0000000000000000000000000000000000000000000000000000000008152600401610cb3906132f4565b60405180910390fd5b610cc78484846117db565b600190509392505050565b600060036000838152602001908152602001600020549050919050565b60006001151560056000610d01611054565b73ffffffffffffffffffffffffffffffffffffffff1673ffffffffffffffffffffffffffffffffffffffff16815260200190815260200160002060009054906101000a900460ff16151514610d8b576040517f08c379a0000000000000000000000000000000000000000000000000000000008152600401610d82906132f4565b60405180910390fd5b610d9684848461166f565b600190509392505050565b6000600160008473ffffffffffffffffffffffffffffffffffffffff1673ffffffffffffffffffffffffffffffffffffffff16815260200190815260200160002060008373ffffffffffffffffffffffffffffffffffffffff1673ffffffffffffffffffffffffffffffffffffffff16815260200190815260200160002060009054906101000a900460ff16905092915050565b610e3d611054565b73ffffffffffffffffffffffffffffffffffffffff168573ffffffffffffffffffffffffffffffffffffffff161480610e835750610e8285610e7d611054565b610da1565b5b610ec2576040517f08c379a0000000000000000000000000000000000000000000000000000000008152600401610eb99061312a565b60405180910390fd5b610ecf8585858585611aa9565b5050505050565b610ede610fc3565b600073ffffffffffffffffffffffffffffffffffffffff168173ffffffffffffffffffffffffffffffffffffffff1603610f4d576040517f08c379a0000000000000000000000000000000000000000000000000000000008152600401610f4490613386565b60405180910390fd5b610f56816115a9565b50565b60007f01ffc9a7000000000000000000000000000000000000000000000000000000007bffffffffffffffffffffffffffffffffffffffffffffffffffffffff1916827bffffffffffffffffffffffffffffffffffffffffffffffffffffffff1916149050919050565b610fcb611054565b73ffffffffffffffffffffffffffffffffffffffff16610fe9610be0565b73ffffffffffffffffffffffffffffffffffffffff161461103f576040517f08c379a0000000000000000000000000000000000000000000000000000000008152600401611036906133f2565b60405180910390fd5b565b806002908161105091906135be565b5050565b600033905090565b81518351146110a0576040517f08c379a000000000000000000000000000000000000000000000000000000000815260040161109790613702565b60405180910390fd5b600073ffffffffffffffffffffffffffffffffffffffff168473ffffffffffffffffffffffffffffffffffffffff160361110f576040517f08c379a000000000000000000000000000000000000000000000000000000000815260040161110690613794565b60405180910390fd5b6000611119611054565b9050611129818787878787611d44565b60005b84518110156112da57600085828151811061114a576111496131dc565b5b602002602001015190506000858381518110611169576111686131dc565b5b60200260200101519050600080600084815260200190815260200160002060008b73ffffffffffffffffffffffffffffffffffffffff1673ffffffffffffffffffffffffffffffffffffffff1681526020019081526020016000205490508181101561120a576040517f08c379a000000000000000000000000000000000000000000000000000000000815260040161120190613826565b60405180910390fd5b81810360008085815260200190815260200160002060008c73ffffffffffffffffffffffffffffffffffffffff1673ffffffffffffffffffffffffffffffffffffffff168152602001908152602001600020819055508160008085815260200190815260200160002060008b73ffffffffffffffffffffffffffffffffffffffff1673ffffffffffffffffffffffffffffffffffffffff16815260200190815260200160002060008282546112bf9190613846565b92505081905550505050806112d39061323a565b905061112c565b508473ffffffffffffffffffffffffffffffffffffffff168673ffffffffffffffffffffffffffffffffffffffff168273ffffffffffffffffffffffffffffffffffffffff167f4a39dc06d4c0dbc64b70af90fd698a233a518aa5d07e595d983b8c0526c8f7fb878760405161135192919061387a565b60405180910390a4611367818787878787611da2565b611375818787878787611daa565b505050505050565b600073ffffffffffffffffffffffffffffffffffffffff168473ffffffffffffffffffffffffffffffffffffffff16036113ec576040517f08c379a00000000000000000000000000000000000000000000000000000000081526004016113e390613923565b60405180910390fd5b8151835114611430576040517f08c379a000000000000000000000000000000000000000000000000000000000815260040161142790613702565b60405180910390fd5b600061143a611054565b905061144b81600087878787611d44565b60005b84518110156115045783818151811061146a576114696131dc565b5b6020026020010151600080878481518110611488576114876131dc565b5b6020026020010151815260200190815260200160002060008873ffffffffffffffffffffffffffffffffffffffff1673ffffffffffffffffffffffffffffffffffffffff16815260200190815260200160002060008282546114ea9190613846565b9250508190555080806114fc9061323a565b91505061144e565b508473ffffffffffffffffffffffffffffffffffffffff16600073ffffffffffffffffffffffffffffffffffffffff168273ffffffffffffffffffffffffffffffffffffffff167f4a39dc06d4c0dbc64b70af90fd698a233a518aa5d07e595d983b8c0526c8f7fb878760405161157c92919061387a565b60405180910390a461159381600087878787611da2565b6115a281600087878787611daa565b5050505050565b6000600460009054906101000a900473ffffffffffffffffffffffffffffffffffffffff16905081600460006101000a81548173ffffffffffffffffffffffffffffffffffffffff021916908373ffffffffffffffffffffffffffffffffffffffff1602179055508173ffffffffffffffffffffffffffffffffffffffff168173ffffffffffffffffffffffffffffffffffffffff167f8be0079c531659141344cd1fd0a4f28419497f9722a3daafe3b4186f6b6457e060405160405180910390a35050565b8173ffffffffffffffffffffffffffffffffffffffff168373ffffffffffffffffffffffffffffffffffffffff16036116dd576040517f08c379a00000000000000000000000000000000000000000000000000000000081526004016116d4906139b5565b60405180910390fd5b80600160008573ffffffffffffffffffffffffffffffffffffffff1673ffffffffffffffffffffffffffffffffffffffff16815260200190815260200160002060008473ffffffffffffffffffffffffffffffffffffffff1673ffffffffffffffffffffffffffffffffffffffff16815260200190815260200160002060006101000a81548160ff0219169083151502179055508173ffffffffffffffffffffffffffffffffffffffff168373ffffffffffffffffffffffffffffffffffffffff167f17307eab39ab6107e8899845ad3d59bd9653f200f220920489ca2b5937696c31836040516117ce919061257f565b60405180910390a3505050565b600073ffffffffffffffffffffffffffffffffffffffff168373ffffffffffffffffffffffffffffffffffffffff160361184a576040517f08c379a000000000000000000000000000000000000000000000000000000000815260040161184190613a47565b60405180910390fd5b805182511461188e576040517f08c379a000000000000000000000000000000000000000000000000000000000815260040161188590613702565b60405180910390fd5b6000611898611054565b90506118b881856000868660405180602001604052806000815250611d44565b60005b8351811015611a055760008482815181106118d9576118d86131dc565b5b6020026020010151905060008483815181106118f8576118f76131dc565b5b60200260200101519050600080600084815260200190815260200160002060008973ffffffffffffffffffffffffffffffffffffffff1673ffffffffffffffffffffffffffffffffffffffff16815260200190815260200160002054905081811015611999576040517f08c379a000000000000000000000000000000000000000000000000000000000815260040161199090613ad9565b60405180910390fd5b81810360008085815260200190815260200160002060008a73ffffffffffffffffffffffffffffffffffffffff1673ffffffffffffffffffffffffffffffffffffffff1681526020019081526020016000208190555050505080806119fd9061323a565b9150506118bb565b50600073ffffffffffffffffffffffffffffffffffffffff168473ffffffffffffffffffffffffffffffffffffffff168273ffffffffffffffffffffffffffffffffffffffff167f4a39dc06d4c0dbc64b70af90fd698a233a518aa5d07e595d983b8c0526c8f7fb8686604051611a7d92919061387a565b60405180910390a4611aa381856000868660405180602001604052806000815250611da2565b50505050565b600073ffffffffffffffffffffffffffffffffffffffff168473ffffffffffffffffffffffffffffffffffffffff1603611b18576040517f08c379a0000000000000000000000000000000000000000000000000000000008152600401611b0f90613794565b60405180910390fd5b6000611b22611054565b90506000611b2f85611f81565b90506000611b3c85611f81565b9050611b4c838989858589611d44565b600080600088815260200190815260200160002060008a73ffffffffffffffffffffffffffffffffffffffff1673ffffffffffffffffffffffffffffffffffffffff16815260200190815260200160002054905085811015611be3576040517f08c379a0000000000000000000000000000000000000000000000000000000008152600401611bda90613826565b60405180910390fd5b85810360008089815260200190815260200160002060008b73ffffffffffffffffffffffffffffffffffffffff1673ffffffffffffffffffffffffffffffffffffffff168152602001908152602001600020819055508560008089815260200190815260200160002060008a73ffffffffffffffffffffffffffffffffffffffff1673ffffffffffffffffffffffffffffffffffffffff1681526020019081526020016000206000828254611c989190613846565b925050819055508773ffffffffffffffffffffffffffffffffffffffff168973ffffffffffffffffffffffffffffffffffffffff168573ffffffffffffffffffffffffffffffffffffffff167fc3d58168c5ae7397731d063d5bbf3d657854427343f4c083240f7aacaa2d0f628a8a604051611d15929190613af9565b60405180910390a4611d2b848a8a86868a611da2565b611d39848a8a8a8a8a611ffb565b505050505050505050565b611d528686868686866121d2565b611d5a61092f565b15611d9a576040517f08c379a0000000000000000000000000000000000000000000000000000000008152600401611d9190613b94565b60405180910390fd5b505050505050565b505050505050565b611dc98473ffffffffffffffffffffffffffffffffffffffff166123a2565b15611f79578373ffffffffffffffffffffffffffffffffffffffff1663bc197c8187878686866040518663ffffffff1660e01b8152600401611e0f959493929190613c09565b6020604051808303816000875af1925050508015611e4b57506040513d601f19601f82011682018060405250810190611e489190613c86565b60015b611ef057611e57613cc0565b806308c379a003611eb35750611e6b613ce2565b80611e765750611eb5565b806040517f08c379a0000000000000000000000000000000000000000000000000000000008152600401611eaa91906127d5565b60405180910390fd5b505b6040517f08c379a0000000000000000000000000000000000000000000000000000000008152600401611ee790613de4565b60405180910390fd5b63bc197c8160e01b7bffffffffffffffffffffffffffffffffffffffffffffffffffffffff1916817bffffffffffffffffffffffffffffffffffffffffffffffffffffffff191614611f77576040517f08c379a0000000000000000000000000000000000000000000000000000000008152600401611f6e90613e76565b60405180910390fd5b505b505050505050565b60606000600167ffffffffffffffff811115611fa057611f9f6125b5565b5b604051908082528060200260200182016040528015611fce5781602001602082028036833780820191505090505b5090508281600081518110611fe657611fe56131dc565b5b60200260200101818152505080915050919050565b61201a8473ffffffffffffffffffffffffffffffffffffffff166123a2565b156121ca578373ffffffffffffffffffffffffffffffffffffffff1663f23a6e6187878686866040518663ffffffff1660e01b8152600401612060959493929190613e96565b6020604051808303816000875af192505050801561209c57506040513d601f19601f820116820180604052508101906120999190613c86565b60015b612141576120a8613cc0565b806308c379a00361210457506120bc613ce2565b806120c75750612106565b806040517f08c379a00000000000000000000000000000000000000000000000000000000081526004016120fb91906127d5565b60405180910390fd5b505b6040517f08c379a000000000000000000000000000000000000000000000000000000000815260040161213890613de4565b60405180910390fd5b63f23a6e6160e01b7bffffffffffffffffffffffffffffffffffffffffffffffffffffffff1916817bffffffffffffffffffffffffffffffffffffffffffffffffffffffff1916146121c8576040517f08c379a00000000000000000000000000000000000000000000000000000000081526004016121bf90613e76565b60405180910390fd5b505b505050505050565b6121e08686868686866123c5565b600073ffffffffffffffffffffffffffffffffffffffff168573ffffffffffffffffffffffffffffffffffffffff16036122915760005b835181101561228f57828181518110612233576122326131dc565b5b602002602001015160036000868481518110612252576122516131dc565b5b6020026020010151815260200190815260200160002060008282546122779190613846565b92505081905550806122889061323a565b9050612217565b505b600073ffffffffffffffffffffffffffffffffffffffff168473ffffffffffffffffffffffffffffffffffffffff160361239a5760005b83518110156123985760008482815181106122e6576122e56131dc565b5b602002602001015190506000848381518110612305576123046131dc565b5b602002602001015190506000600360008481526020019081526020016000205490508181101561236a576040517f08c379a000000000000000000000000000000000000000000000000000000000815260040161236190613f62565b60405180910390fd5b8181036003600085815260200190815260200160002081905550505050806123919061323a565b90506122c8565b505b505050505050565b6000808273ffffffffffffffffffffffffffffffffffffffff163b119050919050565b505050505050565b6000604051905090565b600080fd5b600080fd5b600073ffffffffffffffffffffffffffffffffffffffff82169050919050565b600061240c826123e1565b9050919050565b61241c81612401565b811461242757600080fd5b50565b60008135905061243981612413565b92915050565b6000819050919050565b6124528161243f565b811461245d57600080fd5b50565b60008135905061246f81612449565b92915050565b6000806040838503121561248c5761248b6123d7565b5b600061249a8582860161242a565b92505060206124ab85828601612460565b9150509250929050565b6124be8161243f565b82525050565b60006020820190506124d960008301846124b5565b92915050565b60007fffffffff0000000000000000000000000000000000000000000000000000000082169050919050565b612514816124df565b811461251f57600080fd5b50565b6000813590506125318161250b565b92915050565b60006020828403121561254d5761254c6123d7565b5b600061255b84828501612522565b91505092915050565b60008115159050919050565b61257981612564565b82525050565b60006020820190506125946000830184612570565b92915050565b600080fd5b600080fd5b6000601f19601f8301169050919050565b7f4e487b7100000000000000000000000000000000000000000000000000000000600052604160045260246000fd5b6125ed826125a4565b810181811067ffffffffffffffff8211171561260c5761260b6125b5565b5b80604052505050565b600061261f6123cd565b905061262b82826125e4565b919050565b600067ffffffffffffffff82111561264b5761264a6125b5565b5b612654826125a4565b9050602081019050919050565b82818337600083830152505050565b600061268361267e84612630565b612615565b90508281526020810184848401111561269f5761269e61259f565b5b6126aa848285612661565b509392505050565b600082601f8301126126c7576126c661259a565b5b81356126d7848260208601612670565b91505092915050565b6000602082840312156126f6576126f56123d7565b5b600082013567ffffffffffffffff811115612714576127136123dc565b5b612720848285016126b2565b91505092915050565b60006020828403121561273f5761273e6123d7565b5b600061274d84828501612460565b91505092915050565b600081519050919050565b600082825260208201905092915050565b60005b83811015612790578082015181840152602081019050612775565b60008484015250505050565b60006127a782612756565b6127b18185612761565b93506127c1818560208601612772565b6127ca816125a4565b840191505092915050565b600060208201905081810360008301526127ef818461279c565b905092915050565b60006020828403121561280d5761280c6123d7565b5b600061281b8482850161242a565b91505092915050565b600067ffffffffffffffff82111561283f5761283e6125b5565b5b602082029050602081019050919050565b600080fd5b600061286861286384612824565b612615565b9050808382526020820190506020840283018581111561288b5761288a612850565b5b835b818110156128b457806128a08882612460565b84526020840193505060208101905061288d565b5050509392505050565b600082601f8301126128d3576128d261259a565b5b81356128e3848260208601612855565b91505092915050565b600067ffffffffffffffff821115612907576129066125b5565b5b612910826125a4565b9050602081019050919050565b600061293061292b846128ec565b612615565b90508281526020810184848401111561294c5761294b61259f565b5b612957848285612661565b509392505050565b600082601f8301126129745761297361259a565b5b813561298484826020860161291d565b91505092915050565b600080600080600060a086880312156129a9576129a86123d7565b5b60006129b78882890161242a565b95505060206129c88882890161242a565b945050604086013567ffffffffffffffff8111156129e9576129e86123dc565b5b6129f5888289016128be565b935050606086013567ffffffffffffffff811115612a1657612a156123dc565b5b612a22888289016128be565b925050608086013567ffffffffffffffff811115612a4357612a426123dc565b5b612a4f8882890161295f565b9150509295509295909350565b600067ffffffffffffffff821115612a7757612a766125b5565b5b602082029050602081019050919050565b6000612a9b612a9684612a5c565b612615565b90508083825260208201905060208402830185811115612abe57612abd612850565b5b835b81811015612ae75780612ad3888261242a565b845260208401935050602081019050612ac0565b5050509392505050565b600082601f830112612b0657612b0561259a565b5b8135612b16848260208601612a88565b91505092915050565b60008060408385031215612b3657612b356123d7565b5b600083013567ffffffffffffffff811115612b5457612b536123dc565b5b612b6085828601612af1565b925050602083013567ffffffffffffffff811115612b8157612b806123dc565b5b612b8d858286016128be565b9150509250929050565b600081519050919050565b600082825260208201905092915050565b6000819050602082019050919050565b612bcc8161243f565b82525050565b6000612bde8383612bc3565b60208301905092915050565b6000602082019050919050565b6000612c0282612b97565b612c0c8185612ba2565b9350612c1783612bb3565b8060005b83811015612c48578151612c2f8882612bd2565b9750612c3a83612bea565b925050600181019050612c1b565b5085935050505092915050565b60006020820190508181036000830152612c6f8184612bf7565b905092915050565b60008060008060808587031215612c9157612c906123d7565b5b6000612c9f8782880161242a565b945050602085013567ffffffffffffffff811115612cc057612cbf6123dc565b5b612ccc878288016128be565b935050604085013567ffffffffffffffff811115612ced57612cec6123dc565b5b612cf9878288016128be565b925050606085013567ffffffffffffffff811115612d1a57612d196123dc565b5b612d268782880161295f565b91505092959194509250565b600060208284031215612d4857612d476123d7565b5b600082013567ffffffffffffffff811115612d6657612d656123dc565b5b612d72848285016128be565b91505092915050565b612d8481612401565b82525050565b6000602082019050612d9f6000830184612d7b565b92915050565b612dae81612564565b8114612db957600080fd5b50565b600081359050612dcb81612da5565b92915050565b60008060408385031215612de857612de76123d7565b5b6000612df68582860161242a565b9250506020612e0785828601612dbc565b9150509250929050565b600080600060608486031215612e2a57612e296123d7565b5b6000612e388682870161242a565b935050602084013567ffffffffffffffff811115612e5957612e586123dc565b5b612e65868287016128be565b925050604084013567ffffffffffffffff811115612e8657612e856123dc565b5b612e92868287016128be565b9150509250925092565b600080600060608486031215612eb557612eb46123d7565b5b6000612ec38682870161242a565b9350506020612ed48682870161242a565b9250506040612ee586828701612dbc565b9150509250925092565b60008060408385031215612f0657612f056123d7565b5b6000612f148582860161242a565b9250506020612f258582860161242a565b9150509250929050565b600080600080600060a08688031215612f4b57612f4a6123d7565b5b6000612f598882890161242a565b9550506020612f6a8882890161242a565b9450506040612f7b88828901612460565b9350506060612f8c88828901612460565b925050608086013567ffffffffffffffff811115612fad57612fac6123dc565b5b612fb98882890161295f565b9150509295509295909350565b7f455243313135353a2061646472657373207a65726f206973206e6f742061207660008201527f616c6964206f776e657200000000000000000000000000000000000000000000602082015250565b6000613022602a83612761565b915061302d82612fc6565b604082019050919050565b6000602082019050818103600083015261305181613015565b9050919050565b7f4e487b7100000000000000000000000000000000000000000000000000000000600052602260045260246000fd5b6000600282049050600182168061309f57607f821691505b6020821081036130b2576130b1613058565b5b50919050565b7f455243313135353a2063616c6c6572206973206e6f7420746f6b656e206f776e60008201527f6572206f7220617070726f766564000000000000000000000000000000000000602082015250565b6000613114602e83612761565b915061311f826130b8565b604082019050919050565b6000602082019050818103600083015261314381613107565b9050919050565b7f455243313135353a206163636f756e747320616e6420696473206c656e67746860008201527f206d69736d617463680000000000000000000000000000000000000000000000602082015250565b60006131a6602983612761565b91506131b18261314a565b604082019050919050565b600060208201905081810360008301526131d581613199565b9050919050565b7f4e487b7100000000000000000000000000000000000000000000000000000000600052603260045260246000fd5b7f4e487b7100000000000000000000000000000000000000000000000000000000600052601160045260246000fd5b60006132458261243f565b91507fffffffffffffffffffffffffffffffffffffffffffffffffffffffffffffffff82036132775761327661320b565b5b600182019050919050565b7f53756e666c6f7765724c616e6447616d653a20596f7520617265206e6f74207460008201527f68652067616d6500000000000000000000000000000000000000000000000000602082015250565b60006132de602783612761565b91506132e982613282565b604082019050919050565b6000602082019050818103600083015261330d816132d1565b9050919050565b7f4f776e61626c653a206e6577206f776e657220697320746865207a65726f206160008201527f6464726573730000000000000000000000000000000000000000000000000000602082015250565b6000613370602683612761565b915061337b82613314565b604082019050919050565b6000602082019050818103600083015261339f81613363565b9050919050565b7f4f776e61626c653a2063616c6c6572206973206e6f7420746865206f776e6572600082015250565b60006133dc602083612761565b91506133e7826133a6565b602082019050919050565b6000602082019050818103600083015261340b816133cf565b9050919050565b60008190508160005260206000209050919050565b60006020601f8301049050919050565b600082821b905092915050565b6000600883026134747fffffffffffffffffffffffffffffffffffffffffffffffffffffffffffffffff82613437565b61347e8683613437565b95508019841693508086168417925050509392505050565b6000819050919050565b60006134bb6134b66134b18461243f565b613496565b61243f565b9050919050565b6000819050919050565b6134d5836134a0565b6134e96134e1826134c2565b848454613444565b825550505050565b600090565b6134fe6134f1565b6135098184846134cc565b505050565b5b8181101561352d576135226000826134f6565b60018101905061350f565b5050565b601f8211156135725761354381613412565b61354c84613427565b8101602085101561355b578190505b61356f61356785613427565b83018261350e565b50505b505050565b600082821c905092915050565b600061359560001984600802613577565b1980831691505092915050565b60006135ae8383613584565b9150826002028217905092915050565b6135c782612756565b67ffffffffffffffff8111156135e0576135df6125b5565b5b6135ea8254613087565b6135f5828285613531565b600060209050601f8311600181146136285760008415613616578287015190505b61362085826135a2565b865550613688565b601f19841661363686613412565b60005b8281101561365e57848901518255600182019150602085019450602081019050613639565b8683101561367b5784890151613677601f891682613584565b8355505b6001600288020188555050505b505050505050565b7f455243313135353a2069647320616e6420616d6f756e7473206c656e6774682060008201527f6d69736d61746368000000000000000000000000000000000000000000000000602082015250565b60006136ec602883612761565b91506136f782613690565b604082019050919050565b6000602082019050818103600083015261371b816136df565b9050919050565b7f455243313135353a207472616e7366657220746f20746865207a65726f20616460008201527f6472657373000000000000000000000000000000000000000000000000000000602082015250565b600061377e602583612761565b915061378982613722565b604082019050919050565b600060208201905081810360008301526137ad81613771565b9050919050565b7f455243313135353a20696e73756666696369656e742062616c616e636520666f60008201527f72207472616e7366657200000000000000000000000000000000000000000000602082015250565b6000613810602a83612761565b915061381b826137b4565b604082019050919050565b6000602082019050818103600083015261383f81613803565b9050919050565b60006138518261243f565b915061385c8361243f565b92508282019050808211156138745761387361320b565b5b92915050565b600060408201905081810360008301526138948185612bf7565b905081810360208301526138a88184612bf7565b90509392505050565b7f455243313135353a206d696e7420746f20746865207a65726f2061646472657360008201527f7300000000000000000000000000000000000000000000000000000000000000602082015250565b600061390d602183612761565b9150613918826138b1565b604082019050919050565b6000602082019050818103600083015261393c81613900565b9050919050565b7f455243313135353a2073657474696e6720617070726f76616c2073746174757360008201527f20666f722073656c660000000000000000000000000000000000000000000000602082015250565b600061399f602983612761565b91506139aa82613943565b604082019050919050565b600060208201905081810360008301526139ce81613992565b9050919050565b7f455243313135353a206275726e2066726f6d20746865207a65726f206164647260008201527f6573730000000000000000000000000000000000000000000000000000000000602082015250565b6000613a31602383612761565b9150613a3c826139d5565b604082019050919050565b60006020820190508181036000830152613a6081613a24565b9050919050565b7f455243313135353a206275726e20616d6f756e7420657863656564732062616c60008201527f616e636500000000000000000000000000000000000000000000000000000000602082015250565b6000613ac3602483612761565b9150613ace82613a67565b604082019050919050565b60006020820190508181036000830152613af281613ab6565b9050919050565b6000604082019050613b0e60008301856124b5565b613b1b60208301846124b5565b9392505050565b7f455243313135355061757361626c653a20746f6b656e207472616e736665722060008201527f7768696c65207061757365640000000000000000000000000000000000000000602082015250565b6000613b7e602c83612761565b9150613b8982613b22565b604082019050919050565b60006020820190508181036000830152613bad81613b71565b9050919050565b600081519050919050565b600082825260208201905092915050565b6000613bdb82613bb4565b613be58185613bbf565b9350613bf5818560208601612772565b613bfe816125a4565b840191505092915050565b600060a082019050613c1e6000830188612d7b565b613c2b6020830187612d7b565b8181036040830152613c3d8186612bf7565b90508181036060830152613c518185612bf7565b90508181036080830152613c658184613bd0565b90509695505050505050565b600081519050613c808161250b565b92915050565b600060208284031215613c9c57613c9b6123d7565b5b6000613caa84828501613c71565b91505092915050565b60008160e01c9050919050565b600060033d1115613cdf5760046000803e613cdc600051613cb3565b90505b90565b600060443d10613d6f57613cf46123cd565b60043d036004823e80513d602482011167ffffffffffffffff82111715613d1c575050613d6f565b808201805167ffffffffffffffff811115613d3a5750505050613d6f565b80602083010160043d038501811115613d57575050505050613d6f565b613d66826020018501866125e4565b82955050505050505b90565b7f455243313135353a207472616e7366657220746f206e6f6e2d4552433131353560008201527f526563656976657220696d706c656d656e746572000000000000000000000000602082015250565b6000613dce603483612761565b9150613dd982613d72565b604082019050919050565b60006020820190508181036000830152613dfd81613dc1565b9050919050565b7f455243313135353a204552433131353552656365697665722072656a6563746560008201527f6420746f6b656e73000000000000000000000000000000000000000000000000602082015250565b6000613e60602883612761565b9150613e6b82613e04565b604082019050919050565b60006020820190508181036000830152613e8f81613e53565b9050919050565b600060a082019050613eab6000830188612d7b565b613eb86020830187612d7b565b613ec560408301866124b5565b613ed260608301856124b5565b8181036080830152613ee48184613bd0565b90509695505050505050565b7f455243313135353a206275726e20616d6f756e74206578636565647320746f7460008201527f616c537570706c79000000000000000000000000000000000000000000000000602082015250565b6000613f4c602883612761565b9150613f5782613ef0565b604082019050919050565b60006020820190508181036000830152613f7b81613f3f565b905091905056fea26469706673582212207e1d48604e648543c4e1624c9f7973e75de267faaa19cd75233650411f50073c64736f6c6343000813003368747470733a2f2f73756e666c6f7765722d6c616e642e636f6d2f706c61792f657263313135352f7b69647d2e6a736f6e",
  "immutableReferences": {},
  "source": "// SPDX-License-Identifier: MIT\r\npragma solidity ^0.8.0;\r\n\r\nimport \"../node_modules/@openzeppelin/contracts/token/ERC1155/extensions/ERC1155Supply.sol\";\r\nimport \"./GameOwner.sol\";\r\nimport \"../node_modules/@openzeppelin/contracts/security/Pausable.sol\";\r\n\r\ncontract SunflowerLandInventory is ERC1155Supply, GameOwner, Pausable {\r\n    constructor() ERC1155(\"https://sunflower-land.com/play/erc1155/{id}.json\") payable {\r\n        gameRoles[msg.sender] = true;\r\n    }\r\n\r\n    function setURI(string memory newuri) public onlyOwner returns (bool) {\r\n        _setURI(newuri);\r\n        return true;\r\n    }\r\n\r\n    function gameMint(\r\n        address to,\r\n        uint256[] memory ids,\r\n        uint256[] memory amounts,\r\n        bytes memory data\r\n    ) public onlyGame returns (bool) {\r\n        _mintBatch(to, ids, amounts, data);\r\n        return true;\r\n    }\r\n\r\n    function gameBurn(\r\n        address to,\r\n        uint256[] memory ids,\r\n        uint256[] memory amounts\r\n    ) public onlyGame returns (bool) {\r\n        _burnBatch(to, ids, amounts);\r\n        return true;\r\n    }\r\n\r\n    function gameTransferFrom(\r\n        address from,\r\n        address to,\r\n        uint256[] memory ids,\r\n        uint256[] memory amounts,\r\n        bytes memory data\r\n    ) public onlyGame returns (bool) {\r\n        _safeBatchTransferFrom(from, to, ids, amounts, data);\r\n        return true;\r\n    }\r\n\r\n    function gameSetApproval(\r\n        address owner,\r\n        address operator,\r\n        bool approved\r\n    ) public onlyGame returns (bool) {\r\n        _setApprovalForAll(owner, operator, approved);\r\n        return true;\r\n    }\r\n\r\n    /**\r\n     * Fetch supply for multiple tokens\r\n     */\r\n    function totalSupplyBatch(uint256[] memory ids)\r\n        public\r\n        view\r\n        returns (uint256[] memory)\r\n    {\r\n        uint256[] memory batchSupply = new uint256[](ids.length);\r\n\r\n        for (uint256 i = 0; i < ids.length; ++i) {\r\n            batchSupply[i] = totalSupply(ids[i]);\r\n        }\r\n\r\n        return batchSupply;\r\n    }\r\n\r\n    /**\r\n     * @dev See {ERC1155-_beforeTokenTransfer}.\r\n     *\r\n     * Requirements:\r\n     *\r\n     * - the contract must not be paused.\r\n     */\r\n    function _beforeTokenTransfer(\r\n        address operator,\r\n        address from,\r\n        address to,\r\n        uint256[] memory ids,\r\n        uint256[] memory amounts,\r\n        bytes memory data\r\n    ) internal virtual override {\r\n        super._beforeTokenTransfer(operator, from, to, ids, amounts, data);\r\n\r\n        require(!paused(), \"ERC1155Pausable: token transfer while paused\");\r\n    }\r\n}\r\n\r\n/*\r\ncontract Crysm is ERC1155 {\r\n    uint256 public constant GOLD = 0;\r\n    uint256 public constant SILVER = 1;\r\n    uint256 public constant THORS_HAMMER = 2;\r\n    uint256 public constant SWORD = 3;\r\n    uint256 public constant SHIELD = 4;\r\n\r\n    constructor() ERC1155(\"https://game.example/api/item/{id}.json\") {\r\n        _mint(msg.sender, GOLD, 10**18, \"\");\r\n        _mint(msg.sender, SILVER, 10**27, \"\");\r\n        _mint(msg.sender, THORS_HAMMER, 1, \"\");\r\n        _mint(msg.sender, SWORD, 10**9, \"\");\r\n        _mint(msg.sender, SHIELD, 10**9, \"\");\r\n    }\r\n}\r\n*/",
  "sourcePath": "C:\\Users\\al.malerba\\Documents\\GitHub\\Crysm\\contracts\\crysm.sol",
  "compiler": {
    "name": "solc",
    "version": "0.8.19+commit.7dd6d404.Emscripten.clang"
  },
  "schemaVersion": "3.4.13",
  "updatedAt": "2023-05-24T12:57:23.273Z",
  "devdoc": {
    "events": {
      "ApprovalForAll(address,address,bool)": {
        "details": "Emitted when `account` grants or revokes permission to `operator` to transfer their tokens, according to `approved`."
      },
      "Paused(address)": {
        "details": "Emitted when the pause is triggered by `account`."
      },
      "TransferBatch(address,address,address,uint256[],uint256[])": {
        "details": "Equivalent to multiple {TransferSingle} events, where `operator`, `from` and `to` are the same for all transfers."
      },
      "TransferSingle(address,address,address,uint256,uint256)": {
        "details": "Emitted when `value` tokens of token type `id` are transferred from `from` to `to` by `operator`."
      },
      "URI(string,uint256)": {
        "details": "Emitted when the URI for token type `id` changes to `value`, if it is a non-programmatic URI. If an {URI} event was emitted for `id`, the standard https://eips.ethereum.org/EIPS/eip-1155#metadata-extensions[guarantees] that `value` will equal the value returned by {IERC1155MetadataURI-uri}."
      },
      "Unpaused(address)": {
        "details": "Emitted when the pause is lifted by `account`."
      }
    },
    "kind": "dev",
    "methods": {
      "balanceOf(address,uint256)": {
        "details": "See {IERC1155-balanceOf}. Requirements: - `account` cannot be the zero address."
      },
      "balanceOfBatch(address[],uint256[])": {
        "details": "See {IERC1155-balanceOfBatch}. Requirements: - `accounts` and `ids` must have the same length."
      },
      "exists(uint256)": {
        "details": "Indicates whether any token exist with a given id, or not."
      },
      "isApprovedForAll(address,address)": {
        "details": "See {IERC1155-isApprovedForAll}."
      },
      "owner()": {
        "details": "Returns the address of the current owner."
      },
      "paused()": {
        "details": "Returns true if the contract is paused, and false otherwise."
      },
      "renounceOwnership()": {
        "details": "Leaves the contract without owner. It will not be possible to call `onlyOwner` functions anymore. Can only be called by the current owner. NOTE: Renouncing ownership will leave the contract without an owner, thereby removing any functionality that is only available to the owner."
      },
      "safeBatchTransferFrom(address,address,uint256[],uint256[],bytes)": {
        "details": "See {IERC1155-safeBatchTransferFrom}."
      },
      "safeTransferFrom(address,address,uint256,uint256,bytes)": {
        "details": "See {IERC1155-safeTransferFrom}."
      },
      "setApprovalForAll(address,bool)": {
        "details": "See {IERC1155-setApprovalForAll}."
      },
      "supportsInterface(bytes4)": {
        "details": "See {IERC165-supportsInterface}."
      },
      "totalSupply(uint256)": {
        "details": "Total amount of tokens in with a given id."
      },
      "transferOwnership(address)": {
        "details": "Transfers ownership of the contract to a new account (`newOwner`). Can only be called by the current owner."
      },
      "uri(uint256)": {
        "details": "See {IERC1155MetadataURI-uri}. This implementation returns the same URI for *all* token types. It relies on the token type ID substitution mechanism https://eips.ethereum.org/EIPS/eip-1155#metadata[defined in the EIP]. Clients calling this function must replace the `\\{id\\}` substring with the actual token type ID."
      }
    },
    "version": 1
  },
  "userdoc": {
    "kind": "user",
    "methods": {
      "totalSupplyBatch(uint256[])": {
        "notice": "Fetch supply for multiple tokens"
      }
    },
    "version": 1
  }
}